:020000040800F2
:10000000E80C002081780008FD770008FF770008E1
:100010000178000803780008057800080000000057
:100020000000000000000000000000000778000849
:1000300009780008000000000B7800080D7800081F
:10004000AB780008AF780008B3780008B7780008EC
:10005000BB780008BF780008C3780008C77800089C
:10006000CB780008CF780008D3780008D77800084C
:10007000DB780008DF780008E3780008E7780008FC
:10008000EB780008EF780008F3780008F7780008AC
:10009000FB780008FF78000803790008077900085A
:1000A0000B7900080F790008137900081779000808
:1000B0001B7900081F7900082379000827790008B8
:1000C0002B7900082F790008337900083779000868
:1000D0003B7900083F790008437900084779000818
:1000E0004B7900084F7900085379000857790008C8
:1000F0005B7900085F790008637900086779000878
:100100006B7900086F790008737900087779000827
:100110007B7900087F7900088379000887790008D7
:100120008B7900088F790008937900089779000887
:100130009B7900089F790008A3790008A779000837
:10014000AB790008AF790008B3790008B7790008E7
:10015000BB790008BF790008C3790008C779000897
:10016000CB790008CF790008D3790008D779000847
:10017000DB790008DF7900080000000000000000C3
:10018000E3790008E779000881B000F5E0700268C3
:10019000914203D343681A44914202D380680028F5
:1001A000F5D101B07047DFF86C17086890B94FF4CB
:1001B000805048604FF480324FF0FF308A60C86052
:1001C00008610420DFF85027DFF850374861C2F893
:1001D000BC010B600120704701F1080313F0070F09
:1001E0000EBF0023C3F1080303F007031944D21A1A
:1001F0008161C26042F001034B60091D28238B50CE
:10020000DFF810170A69C26170472DE9FC4B0746F9
:1002100001F1080010F0070F0FBF8946C0F1080078
:1002200000F0070001EB000902F1080111F0070FCF
:1002300006D002F10800C0F1080000F007000244F7
:100240001546A5EB090009EB0306A0EB030B43F0F1
:100250000303C9F80430AE4228BF01F001FA28793F
:10026000C10758BF01F0FCF9BBF1100F38BF01F016
:10027000F7F9B869854207D1F8685844F860BE615B
:1002800040F00100706050E1786985420AD1B86899
:100290008344C7F808B07E614BF00100706046F8F7
:1002A0000BB042E1686800F00301012940F0AB8027
:1002B000C008C0000190C0081F2839D8AC68D5F824
:1002C0000C800090454508BF01F0CAF9A54208BF5F
:1002D00001F0C6F968680099C008C000B0EBC10F12
:1002E00018BF01F0BDF9009907F1280000EBC1002B
:1002F000844206D03A699442C0F08080E168A94205
:100300007CD1A04506D100983968012282409143F2
:10031000396075E0804506D0386980456ED3D8F8DD
:100320000800A8426AD1C4F80C80C8F8084067E009
:10033000EC68D5F81880AC420CD0A86839698842BE
:1003400022D3C168A94204BFA168A9421CD1C460DC
:10035000A0601BE005F11402146834B905F1100225
:1003600014689CB101E01A46146804F1140319687A
:10037000002902BF04F1100318680028F3D139697D
:100380008A4228BF106001D201F06AF9B8F1000F6B
:1003900036D0E96907F5987000EB81000268954254
:1003A00008D10460A4B9E8697968012282409143C8
:1003B000796025E03869804508D3D8F81000A84254
:1003C00014BFC8F81440C8F8104001E001F048F923
:1003D000B4B139698C4211D3C4F81880286928B1A6
:1003E000884226BF2061846101F03AF9686938B11A
:1003F0003969884202D36061846101E001F030F91B
:1004000001982D18834468684008400068604BF0EC
:10041000010171604FEADB0446F80BB01F2C23D8B2
:1004200007F1280000EBC4084546BBF1100F38BFA8
:1004300001F016F9386820FA04F1C90705D4012142
:1004400001FA04F404433C6007E0D8F80800396975
:1004500088422CBF054601F003F9C8F80860EE6039
:10046000B560C6F80C8060E05FEA1B2008BF002181
:1004700023D0B0F5803F28BF1F211ED2A0F5807287
:10048000120C02F008029040A0F58051090C01F016
:1004900004018840A0F580431B0CC2F10E0203F05A
:1004A0000203521AD21A984002EBD032D01D2BFA16
:1004B00000F101F0010101EB420107F5987202EB36
:1004C0008100F1610022726132617A6822FA01F3DF
:1004D000DB0707D4012303FA01F1114379600660B9
:1004E000B0611DE002681F291DBF4908C1F1190153
:1004F0000BFA01F1594600E002465068C008C000FE
:10050000584516D002F11003CC0F03EB84034900C9
:1005100018680028F0D13869834204D31E60B261A4
:10052000F660B66001E001F09BF809F10800BDE853
:10053000F68B396990688A4228BF8842F3D3C66037
:100540009660B060F2600020B061EEE72DE9FE4FEA
:1005500004460F46A5692E46904699463146FFF758
:1005600013FEA8F128020168406801EB000AAAF115
:10057000270111F007000EBF0021C1F1080101F0B1
:1005800007010AEB0100A0F12F0B06F110008345D3
:1005900038BFB3460BF11800019039460020009097
:1005A0002046FFF719FE0BF1080010F0070F18BFE7
:1005B00001F056F81B20CBF804000BF1080104F5FC
:1005C000E07090E80C5081E80C500760C0F804809F
:1005D000C0F80C9081600198009900E0001D07228E
:1005E0004260491C00F108025245F7D30129D8BFE7
:1005F00001F036F8B34500F09A80ABEB060B301DE6
:10060000311D50F80B004008400041F80B004BF042
:10061000010171604FEADB0746F80BB01F2F22D8AB
:1006200004EBC70000F12805A846BBF1100F38BF46
:1006300001F016F8206820FA07F1C90705D4012156
:1006400001FA07F70743276006E0A8682169884296
:100650002CBF804601F004F8AE60C8F80C60C6F804
:100660000880F56070E05FEA1B2008BF002123D0FE
:10067000B0F5803F28BF1F211ED2A0F58072120C5A
:1006800002F008029040A0F58051090C01F004012D
:100690008840A0F580431B0CC2F10E0203F0020358
:1006A000521AD21A984002EBD032D01D2BFA00F128
:1006B00001F0010101EB420104EB8102002302F58C
:1006C0009870F16173613361626822FA01F3DB07AC
:1006D00007D4012303FA01F1114361600660B061A0
:1006E0001DE002681F291DBF4908C1F119010BFA5D
:1006F00001F1594600E002465068C008C000584564
:1007000016D002F11003CF0F03EB870349001868DE
:100710000028F0D12069834204D31E60B261F660E4
:10072000B56011E003B0BDE8F04F00F099BF0BE0F9
:10073000216990688A4228BF8842F3D3C6609560D9
:10074000B060F2600020B06103B0BDE8F08F2DE929
:10075000F041704F05463868884608B9FFF723FD19
:10076000B96801EB08002F30491E20EA01018845D5
:100770007BD205F5D876B06828B1326889188A42EC
:1007800073D2884271D300F07DFF01001CBF0C685A
:1007900011F1010F69D03068201830607268824210
:1007A00038BF02467260A86960BB286908B18142FF
:1007B00000D22961316174610020F06105F12802E5
:1007C000386868624FF0FF3028620020D260926083
:1007D00002F1080353611361801C10322028F5D305
:1007E0004D48854208BFA4F1280228D055F8040CD2
:1007F000C00805EBC002A2F108000A19121A283A33
:1008000001461CE005F5E070024600E092687AB30C
:10081000136857683B449942F8D1137B1F0727D4CC
:10082000AB691768BB4223D3D2F804C06744BB420C
:100830001ED2A444C2F804C0E868A9692218284658
:10084000FFF7CAFC1FE08068C0B103689342FAD189
:10085000027B130712D4026801604368E418446005
:1008600043462846BDE8F041CFE40020BDE8F081D2
:100870002A69914238BF29610A19E5E70023224617
:100880002846FFF763FEE8688045EED2A0EB08003B
:10089000A969E86001EB0802AA6140F0010050601C
:1008A00048F00300486001F10800BDE8F08138B469
:1008B000184B1A6882B94FF480525A604FF4803452
:1008C0004FF0FF329C60DA601A610422124C134D23
:1008D0005A61C4F8BC211D6011F1400F17D2826922
:1008E000AAB1C368283199420BD200F5E0710C68B7
:1008F000A24203D34D682C44A24202D38968002946
:10090000F5D1C16999423CBF4FF0FF31C16132BCA2
:1009100000207047BC080020940500206859883CDE
:100920002DE9F84F00258946090AC9F1000B08BFD7
:10093000002323D0B1F5803F28BF1F231ED2A1F58D
:100940008072120C02F008029140A1F580531B0C3A
:1009500003F004039940A1F58044240CC2F10E0277
:1009600004F00204D21A121BA14002EBD132D11DB5
:1009700029FA01F303F0010303EB4203074607F5ED
:10098000987858F8230030B31F2B0FBF4C465C08F3
:10099000C4F1190409FA04F4AC46594600E06400B5
:1009A0004268D208D200A2EB09028A4203D21100A7
:1009B000054600F06881426910304FEAD47B50F858
:1009C0002B00002A1CBF824294460028E7D18B46A8
:1009D0006046B0BBBDBB012000FA03F35B00584288
:1009E00003437868034000F04D81584203405B1E8A
:1009F000180B00F01000C340590901F00801CB406A
:100A00009A0802F00402D3405C0804F002040818BB
:100A1000E3401018C3F3400620183044F3401B187D
:100A200058F823000DE008464168C908C900A1EB49
:100A3000090159453CBF8B46054601690029F2D1A1
:100A400040690028F0D1002D00F01C81B868A0EBAF
:100A50000900834580F0168138698542C0F0108115
:100A60006868C008C00009EB0B01884218BF00F09D
:100A7000F7FD05EB0906B54280F00281EC68D5F878
:100A800018A0AC420CD0A8683969884222D3C1684A
:100A9000A94204BFA168A9421CD1C460A0601BE0A8
:100AA00005F11402146834B905F1100214689CB100
:100AB00001E01A46146804F114031968002902BF02
:100AC00004F1100318680028F3D139698A4228BF5D
:100AD000106001D200F0C4FDBAF1000F36D0E96910
:100AE00008EB81000268954209D10460200014D10E
:100AF000E8697968012282409143796026E038698B
:100B0000824508D3DAF81000A84214BFCAF814408E
:100B1000CAF8104001E000F0A3FDBCB1386984427E
:100B200012D3C4F818A0286930B13969884226BFA9
:100B30002061846100F094FD686938B139698842A8
:100B400002D36061846101E000F08AFDBBF1100F07
:100B50000CD2D94449F003006860291D281D50F8C3
:100B6000090040F0010041F8090088E049F0030065
:100B700068604BF0010070604FEADB0046F80BB094
:100B80001F281DD807EBC00101F12804396821FA9C
:100B900000F2D207A34605D4012202FA00F008436E
:100BA000386006E0A068396988422CBF834600F0AF
:100BB00057FDA660CBF80C60C6F808B0F4605EE0A4
:100BC0005FEA1B2008BF002123D0B0F5803F28BF7B
:100BD0001F211ED2A0F58072120C02F00802904074
:100BE000A0F58051090C01F004018840A0F5804374
:100BF0001B0CC2F10E0203F00203521AD21A9840E3
:100C000002EBD032D01D2BFA00F101F0010101EB13
:100C10004201F16100227261326108EB81007A6861
:100C200022FA01F3DB0707D4012303FA01F1114390
:100C300079600660B0611DE002681F291DBF490888
:100C4000C1F119010BFA01F1594600E00246506862
:100C5000C008C000584518D002F11003CC0F03EBB8
:100C60008403490018680028F0D13869834204D30E
:100C70001E60B261F660B66001E000F0F1FC13E1C5
:100C800000F0EEFC0DE18B46A3E6396990688A42DC
:100C900028BF8842F1D3C6609660B060F260002041
:100CA000B061ECE72DE9F84F064688467168484286
:100CB0000140491E080B00F01000C1404A0902F033
:100CC0000802D1408B0803F00403D9404D0805F019
:100CD00002051018E9401818C1F34004281806F559
:100CE000987A2044E14009185AF821104868C00851
:100CF000C0000D46A0EB080909E001464868C0089D
:100D0000C000A0EB080048453CBF81460D4608697D
:100D10000028F2D149690029F0D130698542C0F03C
:100D2000BE806868C00808EB090BC000584518BFB2
:100D300000F096FC05EB08008542009080F0AF8043
:100D4000EF68AC69AF420CD0A8683169884222D301
:100D5000C168A94204BFB968A9421CD1C760B86084
:100D60001BE005F11402176837B905F11002176886
:100D70009FB101E01A46176807F1140319680029AA
:100D800002BF07F1100318680028F3D131698A42C5
:100D900028BF106001D200F063FC002C31D0E9695B
:100DA0000AEB81000268954208D107608FB9E869B3
:100DB0007168012282409143716022E0306984426F
:100DC00005D32069A84214BF6761276101E000F0E4
:100DD00047FCB7B13069874211D3BC61286930B193
:100DE0003169884226BF3861876100F039FC686943
:100DF00038B13169884202D37861876101E000F03F
:100E00002FFCB9F1100F0BD24BF003006860291DC5
:100E1000281D50F80B0040F0010041F80B003DE0A8
:100E200048F00301696049F00100291D41F80800FC
:100E3000009840F80990D6F808804FEAD80BBBF12B
:100E4000200F28BF00F00CFCB8F1000F22D006EBF9
:100E5000CB00776900F12804A246B8F1100F38BF23
:100E600000F0FEFB306820FA0BF1C90705D4012120
:100E700001FA0BF10843306006E0A068316988424E
:100E80002CBF824600F0ECFBA760CAF80C70C7F8D4
:100E900008A0FC60C6F808900098706104E000F0BB
:100EA000DFFB0020BDE8F28F05F10800BDE8F28FFE
:100EB0002DE9FE4F0546AFF30080F52DDFF89C6766
:100EC00080F004810B2D31BF10250B35ED08ED00AE
:100ED0003068EC08E04010F0030F46D0C04300F04B
:100EE0000100041906F1280000EBC408E700D8F857
:100EF00008506868C008C000B84218BF00F0B0FBD6
:100F0000D5F80890454508BF00F0AAFB4D4508BF3D
:100F100000F0A6FB6868C008C000B84218BF00F027
:100F20009FFBC84507D13168012000FA04F421EA8B
:100F3000040434600DE03069814508D3D9F80C0011
:100F4000A84204D1C8F80890C9F80C8001E000F06C
:100F500087FB47F003006860291D281D05F1080480
:100F6000C05940F00100C851F8E0B168A94280F0D2
:100F7000BE80002800F0A1804FF0010808FA04F1BB
:100F8000490000FA04F4484201430C406042044026
:100F9000641E200B00F01000C440610901F008013C
:100FA000CC40A20802F00402D440630803F002031C
:100FB0000818DC401018C4F3400718183818FC4013
:100FC000241806F1280000EBC40AE700DAF80890BC
:100FD000D9F80400C008C000B84218BF00F040FBB8
:100FE000D9F808B0D14508BF00F03AFBD94508BF91
:100FF00000F036FBD9F80400C008C000B84218BFA2
:1010000000F02EFBDA4506D1316808FA04F421EA33
:10101000040434600DE03069834508D3DBF80C002C
:10102000484504D1CAF808B0CBF80CA001E000F0A4
:1010300017FB45F00300C9F804007F1B09F1040108
:1010400047F00100485109EB05000190C751B46811
:101050004FEAD40ABAF1200F28BF00F001FB34B3E5
:10106000CDF800A006F12800756900EBCA0AD34646
:10107000102C38BF00F0F4FA3168009821FA00F221
:10108000D30704D408FA00F00843306007E0DAF828
:101090000800316988422CBF834600F0E1FACAF8A3
:1010A0000850CBF80C50C5F808B0C5F80CA0B760D4
:1010B00009F108040198706150E07068C0B32946D6
:1010C0003046FFF7EFFD040011D047E015F1400F67
:1010D00028BF4FF0FF350AD20B35ED087068ED00E0
:1010E00028B129463046FFF71BFC040036D1B06812
:1010F000A8421DD3411B726910290AD3501970618F
:10110000B16041F001034360415045F00305556073
:101110000BE00021B1607161131D40F003015160CB
:10112000111D095841F00101195002F1080415E0A0
:10113000F06885420DD2401BB169F0604A19B26176
:1011400040F00100506045F003054D6001F10804D6
:1011500004E029463046FFF7FAFA0446AFF3008070
:101160002046FFF7F1BA002800D170472DE9FC476F
:10117000A0F10805AFF30080DFF8E0643269954222
:10118000C0F05982686800F00301012900F0538221
:10119000C1084FEAC109C10705EB090839D42C6819
:1011A00010F0030F00F04982604205449542A144CB
:1011B000C0F041827069854200F0C780E408202CAD
:1011C0005ED2D5F80CA0AF68554508BF00F048FACC
:1011D000BD4208BF00F044FA6868C008C000B0EB28
:1011E000C40F18BF00F03CFA06F1280000EBC40061
:1011F000874205D031698F423FD3F968A9423CD17B
:10120000BA452CD13068012101FA04F420EA040423
:101210003460454580F00F82D8F80440E00740F183
:101220000A82A00700F16881B069804540F0A08083
:10123000F068B5618144C6F80C9049F0010068601F
:101240007069854202D100207061B060F069484544
:1012500080F0F38100213046FFF729FBEDE1824564
:1012600006D03069824508D3DAF80800A84204D1D4
:10127000C7F80CA0CAF80870CBE700F0F1F9C8E78E
:10128000EC68AF69AC420BD0A868904223D3C16828
:10129000A94204BFA168A9421DD1C460A0601CE09E
:1012A00005F114031C6834B905F110031C68A4B1DE
:1012B00001E063461C6804F1140CDCF800100029FE
:1012C00002BF04F1100CDCF800000028F1D19342B9
:1012D00028BF196001D200F0C3F9002F99D0E96945
:1012E00006F5987000EB81000268954209D1046010
:1012F000200011D1E8697168012282409143716038
:1013000087E73069874205D33869A84214BF7C61FA
:101310003C6101E000F0A4F9002C3FF47AAF3169A0
:101320008C42AAD3A761286928B1884226BF2061D0
:10133000846100F095F9686900283FF46AAF31696B
:1013400088429AD36061846163E798F8040000F0F2
:10135000030003287FF45DAFC6F8089049F001014F
:10136000D8F8040040084000C8F8040069600AE0AA
:10137000706980450AD1B06875618144C6F80890EB
:1013800049F00100686045F8099056E1E408E4007E
:10139000A144E408202C3AD2D8F80CA0D8F8087060
:1013A000D04508BF00F05CF9B84508BF00F058F917
:1013B000D8F80400C008C000B0EBC40F18BF00F09C
:1013C0004FF906F1280000EBC400874207D03169CD
:1013D0008F42C0F08480F968414540F08080BA4572
:1013E00007D13068012101FA04F420EA04043460D2
:1013F00077E0824506D031698A4570D3DAF8080073
:1014000040456CD1C7F80CA0CAF8087069E0D8F85C
:101410000C40D8F8187044450DD0D8F80800316950
:10142000884222D3C168414504BFA16841451CD10F
:10143000C460A0601BE008F11402146834B908F11C
:10144000100214689CB101E01A46146804F11403F8
:101450001968002902BF04F1100318680028F3D1AD
:1014600031698A4228BF106001D200F0F9F8002FDC
:1014700037D0D8F81C1006F5987000EB8100026890
:1014800090450AD10460200012D1D8F81C00716880
:10149000012282409143716023E03069874205D385
:1014A0003869404514BF7C613C6101E000F0D8F828
:1014B000BCB131698C4212D3A761D8F8100028B1B1
:1014C000884226BF2061846100F0CAF8D8F8140071
:1014D00038B13169884202D36061846101E000F073
:1014E000BFF849F00100686045F8099070698542CD
:1014F0000BD1C6F80890A0E064086400C8F8044066
:1015000049F00100686045F809904FEAD907202F9B
:1015100022D206F1280000EBC704A046B9F1100F53
:1015200038BF00F09DF8306820FA07F1C90705D4EC
:10153000012101FA07F70743376006E0A068316927
:1015400088422CBF804600F08BF8A560C8F80C508C
:10155000C5F80880EC6070E05FEA192008BF002140
:1015600023D0B0F5803F28BF1F211ED2A0F5807286
:10157000120C02F008029040A0F58051090C01F015
:1015800004018840A0F580431B0CC2F10E0203F059
:101590000203521AD21A984002EBD032D01D29FA17
:1015A00000F101F0010101EB420106F5987202EB36
:1015B000810000226A612A61E961726822FA01F3FE
:1015C000DB0707D4012303FA01F1114371600560C1
:1015D000A8611DE002681F291DBF4908C1F119015A
:1015E00009FA01F1494600E002465068C008C0000F
:1015F000484526D002F11003CC0F03EB84034900C9
:1016000018680028F0D13069834204D31D60AA61B4
:10161000ED60AD6001E000F023F8306A401E3062FA
:101620000BD1D6F8C80100E080680028FCD14FF04B
:10163000FF30306201E000F013F8AFF30080BDE846
:10164000F387316990688A4228BF8842E3D3C56036
:101650009560A860EA600020A861DEE7940500209C
:10166000012000F025B8B1F5807F02D34FF0FF30A4
:1016700070470170012070470078401E8041C043D0
:10168000C00F70470749086808B100207047064836
:10169000C008C00008600549C908C900091A0160EE
:1016A000704700BFE0080020EF0C0020E80E00208B
:1016B00080B5AFF30080024A11001820ABBEFBE7F3
:1016C0002600020038B5044600F0BEF8050009D136
:1016D0007CB90FF2340000F0D9FD4FF4BC7100F07A
:1016E000D1FDFEE7002084F838002168DFF89C0374
:1016F00005E0012084F838002168DFF8940301F048
:1017000068F8284632BD0000736F667477617265B1
:101710005F696E697400000070B50469DFF8745386
:10172000AC4232BF1826491C2026059C049D493036
:10173000017086700021457184714270C37001711F
:1017400070BD7CB5002301250FF6A4340FF6B83226
:10175000DFF8446320B90096C82100F0E5FDFEE7FC
:1017600001291CBF0229042907D00096C921DFF8EE
:101770002C33204601F01CF8FEE780F848100FF2E9
:101780008C02067B02EB83021478B44202BF5478C9
:10179000467BB44204D19478867BB44208BFD578A6
:1017A0005B1C0C2BEBD3012926D0022902D0042983
:1017B00011D028E0690707D5022108220191009283
:1017C00002230122BB211CE0A90715D5022100F04C
:1017D00035F83B2115E0E90607D5042106220191E1
:1017E000009204230122EB210BE0290704D50421F8
:1017F00000F024F86B2104E00121002200F01FF822
:101800000321FFF789FF002076BD0000EF4013039E
:10181000EF401403EF401503EF401603EF40171F8E
:10182000EF40181F1C301613014015033730140702
:1018300037401717C2201603C8401703082201912A
:1018400000920123012270472DE9F843040084B07F
:101850000FF69C290FF6B028914D08D1009542460D
:101860000FF6D023FA21484600F0A2FFFEE700F071
:101870008DFF070040F0068104F139060320307423
:10188000606A40B900954246864B40F205114846D1
:1018900000F08EFFFEE7216900291CBFA08A002806
:1018A00005D0A16900291CBF207F002849D19F21B4
:1018B00003208DF80810009003AB676A012202A98B
:1018C00004F12000B847070024D19DF80C000FF266
:1018D000D812207303A84178617340F25A3180789E
:1018E000A0730190607B00904846237B00F060FF6E
:1018F000204601F061F920B30020A06004F15400FB
:10190000816821610188012907BF0222A282012189
:10191000A18202E00FF2F010AAE0C168A1610121EA
:10192000007C207704EBC10000F16002106828B150
:10193000A369984202D2A06110792077491C03293B
:10194000F0D9216900291CBFA08A002805D0A1690F
:1019500000291CBF207F002805D10FF6542000F07D
:1019600038FF01208FE000200FF2C81101EBC00208
:101970001379227B934234D0401C1028F6D321697E
:101980000FF6BC2000F025FF662000218DF8040032
:1019900000910023676A012200F004FAB8470700AB
:1019A0000FF2102563D100F001FA992000218DF883
:1019B000050000910023676A01220DF1050104F181
:1019C0002000B847070002D100F0F0F907463800C0
:1019D00019D10FF204224FF45171484600F0E8FE8D
:1019E00014E051F830100029C9D02369A26822B14F
:1019F0000FF6F41000F0EDFEC6E71A460FF61420BD
:101A000000F0E7FEC0E7284600F0E3FE380039D1D9
:101A1000207D410706D500220121204600F08EFCE2
:101A200007002FD120691B49884229D30121204674
:101A300000F0B1FB070025D1B7208DF8040000218C
:101A4000009104F12000646A0023012201A9A0474B
:101A500007000FF2A0110ED1012030700B460FF2DB
:101A60009C1240F2A931484600F0A2FE0AE0284646
:101A700000F0AFFE06E00FF2A81000F0AAFE01E0B1
:101A800000203070384605B0BDE8F083E8750008E6
:101A9000C0750008010000011476000830760008C7
:101AA0006C7600087C76000854686520666C61736B
:101AB0006820646576696365206D616E7566616333
:101AC000747572657220494420697320307825301E
:101AD00032582C206D656D6F727920747970652095
:101AE0004944206973203078253032582C206361B6
:101AF00070616369747920494420697320307825C6
:101B00003032582E000000004572726F723A205237
:101B100065616420666C61736820646576696365DD
:101B2000204A45444543204944206572726F722E15
:101B30000000000040750008010000004875000822
:101B400004000000507500081C00000054750008D7
:101B50001F0000005C75000820000000647500088C
:101B6000370000006C750008620000007475000802
:101B7000890000007C7500088C0000008475000856
:101B8000A10000008C750008AD00000094750008ED
:101B9000BF00000098750008C8000000A475000888
:101BA000D5000000AC750008EF000000B475000817
:101BB000C20000004572726F723A20466C61736811
:101BC000206465766963652072657365742066615B
:101BD000696C65642E000000466C61736820646562
:101BE00076696365207265736574207375636365D8
:101BF00073732E00456E74657200000025732034E7
:101C00002D427974652061646472657373696E67CF
:101C1000206D6F646520737563636573732E0000B8
:101C20004572726F723A20257320342D42797465A3
:101C30002061646472657373696E67206D6F64659B
:101C4000206661696C65642E000000002DE9FE438A
:101C5000040017461D46884600F0E1F90FF6080318
:101C600005D100934FF4C67100F03BF9FEE73DB992
:101C7000009340F28D110FF2FC7300F099FDFEE726
:101C800004F13806317829B9009340F28F1100F041
:101C900024F9FEE7206907EB0801884203D200F02F
:101CA000B6F905202EE0E16A09B100F013F900F061
:101CB0007DF8814600BB707C032809D000972B4635
:101CC000A56A04F14902414604F12000A84712E048
:101CD0008DF804000DF105024146204600F0DCFAC3
:101CE000707800972B460028656A14BF05220422ED
:101CF00000F058F8A8478146216B11B104F120008B
:101D000088474846BDE8FE833EB5040000F087F9E9
:101D10000FF2A07305D100934FF4DF7100F0E1F8EA
:101D2000FEE794F8381029B900934FF4E07100F001
:101D3000D4F8FEE7E16A09B100F0CCF8012100F027
:101D40000EFA050025D1C7208DF80400217D080773
:101D50000DD5942080218DF805008DF806109A206D
:101D600000218DF8070000910023042202E000F01A
:101D700052F90122656A00F015F8A84705462800C7
:101D800004D00FF2407000F024FD02E000F00EF8E5
:101D9000054600F0E3F9216B11B104F120008847FA
:101DA00028463EBD01A904F120007047204642E2CA
:101DB0002DE9FF4704000E464FF000080FF23050A7
:101DC0000FF244510FF22C7506D10A4600954FF4DC
:101DD000FD7100F086F8FEE704F1380999F800304B
:101DE00033B90A4600954FF4FE7100F076F8FEE72D
:101DF00017462069B919884203D200F008F9052076
:101E000055E0002E08BF874203D12046FFF77CFF34
:101E10004DE0E16A09B100F05DF825463C4606E078
:101E2000B81B0818A04238D2B618741ACE19A4B339
:101E300099F8180060B122463146284601F01AF997
:101E400005EBC00101F1600090F804A0076802E012
:101E500095F81CA0AF690121284600F09CF9804646
:101E6000D8B98DF804A00DF105023146284600F0DE
:101E700013FA99F80100002814BF0522042200F08B
:101E8000CAF8D5F824C001A905F12000E047804632
:101E900070B10FF26C6000F09CFC0021284600F04D
:101EA0007AF9296B11B105F120008847404652E1CB
:101EB000284600F0C0F900288046EED1B6FBF7F1C5
:101EC0007943E21B701AABD1A7423CBF1446BE193E
:101ED000ADD3E2E704F1200008470FF2A05300F071
:101EE00067BC0FF2504300F063BC2DE9F04F06468B
:101EF0001446C3B0002500F092F80FF230672EB9F7
:101F0000009740F25E21FFF7ECFFFEE7012B18BFC0
:101F1000B3F5807F984607D000974FF418710FF201
:101F2000246300F045FCFEE706F1380A9AF8003019
:101F30002BB9009740F26221FFF7CFFFFEE70F4673
:101F40003069E119884203D200F061F805205BE0B6
:101F5000DDF83091F16A51B106F12000884706E0C2
:101F6000304600F068F90028054643D1D944002CDA
:101F700040D00121304600F00EF90028054639D145
:101F800002208DF804000DF105023946304600F0BC
:101F900083F99AF801000028B7FBF8FB14BF052568
:101FA000042508FB0BFBB7EB0B0005D0A8EB0700E3
:101FB0008344A34504D302E0C346A34500D9A34606
:101FC00001A85A464946401901F062FC00F023F886
:101FD000D6F824C00BEB050201A906F12000E0476A
:101FE0000028A4EB0B045F440546B9D00FF27C50E7
:101FF00000F0EFFB0021304600F0CDF8316B11B15D
:1020000006F120008847284643B0BDE8F08F0FF264
:102010007C4000F0DEBB00200090002370470FF2F0
:10202000D0200FF2E42270472DE9FF4704001E463E
:102030004FF0010A0FF2B8200FF2CC250FF25857DB
:1020400008D100972A460FF2EC2340F2B52100F0A8
:10205000AFFBFEE704F1380898F8003043B9009769
:102060002A460FF2184340F2B62100F0A1FBFEE72A
:1020700015460F462069E919884203D2FFF7C7FFCA
:10208000052068E0E16A09B1FFF724FFF80708D5E9
:1020900000F067F88146761C7F1C5FEA09004FD18B
:1020A0006D1E012100F05BF85FEA000948D1AD2008
:1020B0008DF804000DF1040906E0FFF777FE01003A
:1020C0003DD1AD1EBF1CB61C012D2FD9BAF1000F9A
:1020D00016D00DF105023946204600F0DDF898F8DB
:1020E0000100002814BF05220422307809F80200FC
:1020F0000DF10501707888544FF0000A921C06E03B
:10210000307889F801000322707889F80200FFF71F
:1021100082FFD4F824C0FFF745FEE0470100CCD091
:1021200081460FF2484000F054FB0CE000F016F836
:102130005FEA000904D1012D07D100F012F88146B1
:102140005FEA090001D000F009F8216B11B104F138
:1021500020008847484604B0BDE8F08700212046AB
:1021600019E000960123012239462046BDE67CB5E0
:102170001C46858A0023EE0705D500944FF4807332
:10218000FFF7B3FE04E06D0703D52346FFF74CFFCE
:102190000346184676BD7CB504000D4608D10FF203
:1021A000044000F073F840F26E3100F06BF8FEE787
:1021B000280019BF06218DF8041004208DF80400B2
:1021C0000021009100F0ECF8010004D10DF10501AF
:1021D000204600F00DF8010009D145B19DF8051029
:1021E0008A0704D40FF2D03000F0F3FA022076BD53
:1021F0001CB5044605208DF804000B46FFF70FFFC1
:102200000FF2D8312CB900914FF46F71FFF769FECE
:10221000FEE73BB9009140F2BD310FF2D43300F03C
:10222000C7FAFEE701200090012204F12000646A51
:1022300001A9A04716BD3EB505002C6C0CD10FF2CC
:10224000B83000F023F840F2C73100F01BF8FEE789
:10225000010018BF8047641E01A92846FFF7C8FF88
:10226000010003D19DF80410CA0709D5E86B002CC2
:10227000EED10FF2903000F0ACFA042420463EBDBF
:102280000446FBE70FF2680000F092BA0FF2A403D5
:102290000FF274020090704738B513460FF25004E5
:1022A0000FF264020FF2843528B900954FF477716C
:1022B00000F03AF8FEE743B9009540F2DD310FF245
:1022C0008433204600F074FAFEE790F839000028C5
:1022D00014BF04200320002206E0841A641EE400D8
:1022E00021FA04F59D54521C8242F6DB31BD0000F8
:1022F000443A5C534655445C736675645C73726320
:102300005C736675642E63002825732920686173E9
:1023100020617373657274206661696C6564206105
:10232000742025732E0000000FF20803204600F0F1
:102330003FBA0000666C6173680000007CB5040061
:10234000154608D10FF20430FFF7A0FF4FF47D715E
:10235000FFF798FFFEE739B1502100208DF80410F7
:10236000009000F01DF802E00121FFF714FF06467F
:1023700030000DD101208DF804008DF80550FFF7D5
:102380004AFE04F12000646A022201A9A047064621
:1023900030001CBF0FF2C82000F01BFA304676BD9B
:1023A0000023666A012201A904F1200030470000E1
:1023B0005761726E696E673A205468697320666C63
:1023C00061736820646576696365206973206E6F48
:1023D0007420666F756E64206F72206E6F74207348
:1023E0007570706F72742E0046696E6420612025CE
:1023F0007320257320666C61736820636869702E92
:102400002053697A6520697320256C642062797491
:1024100065732E0046696E64206120257320666C0A
:1024200061736820636869702E2053697A6520693A
:102430007320256C642062797465732E000000009F
:1024400046696E64206120666C6173682063686908
:10245000702E2053697A6520697320256C64206290
:10246000797465732E000000736675645F72656130
:10247000640000006461746100000000666C6173B8
:10248000682D3E696E69745F6F6B00004572726FF4
:10249000723A20466C61736820616464726573737C
:1024A000206973206F7574206F6620626F756E648B
:1024B0002E000000736675645F636869705F657203
:1024C000617365004572726F723A20466C61736881
:1024D00020636869702065726173652053504920DC
:1024E000636F6D6D756E6963617465206572726F7F
:1024F000722E0000736675645F657261736500001B
:102500004572726F723A20466C6173682065726121
:1025100073652053504920636F6D6D756E696361FB
:102520007465206572726F722E00000070616765BD
:102530003235365F6F725F315F627974655F7772D3
:102540006974650077726974655F6772616E203DBA
:102550003D2031207C7C2077726974655F677261F1
:102560006E203D3D20323536000000004572726F0E
:10257000723A20466C6173682077726974652053E3
:10258000504920636F6D6D756E6963617465206578
:1025900072726F722E0000006161695F77726974F8
:1025A000650000007365745F77726974655F656EBE
:1025B00061626C65640000004572726F723A20437C
:1025C000616E277420656E61626C65207772697434
:1025D00065207374617475732E00000073667564F2
:1025E0005F726561645F73746174757300000000ED
:1025F0007374617475730000776169745F627573D9
:10260000790000004572726F723A20466C617368FF
:102610002077616974206275737920686173206125
:102620006E206572726F722E000000006D616B6526
:102630005F6164726573735F627974655F61727202
:1026400061790000617272617900000073667564DF
:102650005F77726974655F737461747573000000ED
:102660004572726F723A2057726974655F73746154
:102670007475732072656769737465722066616929
:102680006C65642E0000000001B54FF6FF73012257
:102690006946DFF8C00301F09BF9009802BD72B6ED
:1026A000704762B670472DE9FC4147690E46140039
:1026B00098460FF2DC300FF21C420FF2C43107D003
:1026C00036B9009181210FF22C4300F071F8FEE73A
:1026D000089D4DB1B8F1000F06D1009185210FF290
:1026E000204300F065F8FEE7786818B139890122C7
:1026F00001F0BEFC5CB135B12B4642462146304666
:1027000000F0D7F803E02146304600F01FF9786862
:1027100018B13989002201F0ABFC0020BDE8F68138
:1027200078B51C46002589B013780E988DF80030D6
:10273000567801918DF8016091788DF80810D17864
:102740008DF809100395ADF8105051790591069454
:102750000790684691798DF8201000F056F8079898
:1027600058B100F0ECF840B1F16B0FF2A03000F07E
:1027700030F8012086F83900032528460AB070BDDC
:1027800078210846411E0028FBD17047416869B98D
:10279000B149B24A81624262B149C162B149016341
:1027A000B1494163B149C163B14901640020704737
:1027B00008B478B514460A4601460FF26C30AD4EA7
:1027C00001F070FC00F019F800F012F871BC5DF82F
:1027D00008FB0EB478B504460FF26430A54E01F044
:1027E00061FC00F00AF800F003F871BC5DF810FB22
:1027F00031460FF2443001F055BC05AD2B46224660
:102800004FF48071304601F061BC80B58EB0017824
:1028100000914268019241690591417869B10129AD
:1028200008BF4FF4807108D0022908BF4FF400712F
:1028300003D0042902D14FF440710691417A69B165
:10284000012908BF4FF4806108D0022908BF4FF466
:10285000006103D0042902D14FF440610791017A4D
:10286000182907BF4FF4005203924FF440510391CF
:1028700090F8201069B1012908BF4FF0807108D08D
:10288000022908BF4FF0007103D0042902D14FF094
:102890004071099100220D9208920B920C9241F224
:1028A0008832C0690A906946734801F07DFC0FB018
:1028B00000BD78B589B0144602788DF80020002557
:1028C0000122012601298DF8016013D904290FD3B3
:1028D00086784278C078360246EA024618228DF899
:1028E000082006430120019604228DF8090004E027
:1028F000032022E00195ADF808500395ADF8105083
:102900008A421DBF891AC9000591059501208DF8DD
:102910002000079306946846FFF777FF079858B1A1
:1029200000F00DF840B1F16B0FF2E010FFF751FF2E
:10293000012086F83900032528460AB070BD4E4EA6
:1029400041F288322146304601F0C4BC30B589B02E
:1029500002788DF8002000240122012301298DF83E
:10296000013013D904290FD3837842781B0243EA3C
:102970000243C2781343019301228DF809201823E2
:102980008DF80830042204E0022026E00194ADF81E
:102990000840891A0B00104418BF012306908DF8D7
:1029A000203007910394ADF8104005946846FFF776
:1029B0002CFF079880B1304D069941F288322846A5
:1029C00001F02FFC40B1E96B0FF27C10FFF701FF23
:1029D000012085F839000224204609B030BDF8B541
:1029E00006468020FEF764FA244F0025386050B177
:1029F000802101F0DBFD304601F0DCFD401CFEF7DC
:102A000057FA040005D10FF25C10FFF7E2FE012037
:102A1000F2BD314601F0EAFD38680460FEF752FE6F
:102A200058B131460FF24810FFF7D3FE3868012540
:102A300008B101F001FE2846F2BD38680421FEF716
:102A400080FE386890F849100FF25410FFF7C1FE6D
:102A5000F1E70000D800002021270008A726000881
:102A60009F260008A32600080000002081270008F8
:102A7000C02709006C07002050010020D408002066
:102A80007370695F77726974655F72656164000075
:102A9000443A5C534655445C64656D6F5C73746D79
:102AA00033326C3437355F6E6F6E5F6F735F717387
:102AB00070695C636F6D706F6E656E74735C736666
:102AC00075645C706F72745C736675645F706F724E
:102AD000742E630028257329206861732061737345
:102AE000657274206661696C656420617420257369
:102AF0002E00000077726974655F627566000000E1
:102B0000726561645F6275660000000071737069D0
:102B100020726563762064617461206661696C650A
:102B200064282564292100005B534655445D28250F
:102B3000733A256C6429200025730D0A00000000FB
:102B40005B534655445D0000717370692073656E78
:102B5000642064617461206661696C656428256421
:102B6000292100006C6F77206D656D6F7279000010
:102B70004552524F523A2053504920666C61736857
:102B80002070726F6265206661696C65642062798D
:102B900020535049206465766963652025732E00B3
:102BA0007265616420696E737472756374696F6EA7
:102BB000206973202558000070B5040086B00FF21C
:102BC00028550BD10FF210500FF25C530FF2385210
:102BD000009051212846FFF7EBFDFEE702A80021F7
:102BE000C0E9001104F150060823317002AA204602
:102BF00000F0F4F958B10FF29450FFF7EAFD2168A4
:102C00000FF22C50FFF7E5FD002006B070BD9DF8D7
:102C10000800532804BF9DF8090046282AD19DF8D2
:102C20000A00442804BF9DF80B00502822D19DF8CB
:102C30000C20B2709DF80D307370012B05DD194624
:102C40000FF2B450FFF7C5FDD9E79DF80E000190D3
:102C5000009284210FF2D8522846FFF7A9FD04A95B
:102C6000204600F00EF80028C9D004A9204600F044
:102C700064F8CAE70FF234527A212846FFF798FD2C
:102C8000BDE770B586B00C4604A90022C1E9002258
:102C90000FF254450FF270420FF2D45138B900913F
:102CA00028460FF284439621FFF782FDFEE73CB9E8
:102CB000009128460FF2CC539721FFF779FDFEE7EC
:102CC000082304AA082100F089F920B10FF2C450AA
:102CD000FFF77FFD21E09DF81000207004AB5A78CB
:102CE00062709978A1700229D878E0701B799DF8FC
:102CF000156043EA06239DF8166043EA06436360C5
:102D000004DB0FF2C850FFF764FD06E0092806DA7D
:102D100001460FF20C60FFF75CFD00200BE003930F
:102D2000029001920091AF2123780FF23C62284675
:102D3000FFF73EFD012006B070BD2DE9F8470D46B6
:102D40008DB081466F6804A8242101F02FFCB9F1F1
:102D5000000F0FF294360FF2B0320FF2986006D1E6
:102D60000090C2210FF2C03300F035F9FEE735B90B
:102D70000090C3210FF20C5300F02DF9FEE724233D
:102D800004AA3946484600F029F910B10FF27860DC
:102D9000CCE00FF2AC62CB2100F01AF90FF2C8625E
:102DA000CC2100F015F900270FF2D86504A800EB3C
:102DB00087007B1C017803912A46417802917F1C91
:102DC00081780191CF21C078009000F004F9092F9B
:102DD000ECDB04AF09F150057878E8719DF810003C
:102DE00000F00300012802D0032818D01FE00121C1
:102DF000A971D721EB790FF2B0623046FFF7D8FC0A
:102E00009DF81000800810F0010002D0012811D0B8
:102E100018E00121A980E6210FF23C7210E00020A9
:102E2000A871DB210FF2C46200F0D2F8E8E70FF2DC
:102E3000F0607BE04FF48070A880EA210FF23872D6
:102E400000F0C6F89DF81000C00810F0010002D094
:102E5000012806D024E001212972F5210FF24472E5
:102E60001CE000202872FA210FF2687200F0B0F81E
:102E70009DF81000000910F0010002D0012807D0D1
:102E80000EE0502169724FF480710FF28C7205E0F0
:102E90000620687240F205110FF2F47200F098F803
:102EA000B878400810F0030003D0022827D01ED3C2
:102EB0002EE00121A972E87240F20F110FF64802CC
:102EC00000F086F8B979FA799DF815303879090457
:102ED00041EA026141EA032101430127D20902D0FC
:102EE000012A1BD02AE0C908491CE96026E001201C
:102EF000A872E8724FF48A710FF62402E0E700200E
:102F0000A8720120E87240F219110FF63002D7E7DB
:102F10000020A872E8720FF63C0007E021F00041A3
:102F2000242907D30020E8600FF64C00FFF751FC7E
:102F300000204AE0C81E07FA00F0E86040F23111B4
:102F4000EB680FF67C020FF690083046FFF730FC76
:102F50000024A24604A800EB4401087F98B109EBC5
:102F6000CA0207FA00F042F8600F487F1071009023
:102F70004FF49C7113689B0A424600F02CF80AF14A
:102F800001005FFA80FA641C042CE3DB002109EBEA
:102F9000C10202F16003491C186890B10A460EE0B4
:102FA00009EBC20656F8600F40B11F68B84205D25F
:102FB0001C7918603079187137603471521C042AFA
:102FC000EEDB0429E3DB012028700EB0BDE8F087BA
:102FD0003046FFF7EDBB3046FFF7EABBFEB50FF614
:102FE000A8040D46D4E9006701A92C0CC1E90067CB
:102FF000290A8DF805408DF806108DF807500FF25C
:10300000E8040FF204110FF60C0640B90A460096C8
:103010004FF4AD710FF2101300F029F8FEE7B5F18F
:10302000807F08D30A46009640F25B110FF2F473DA
:1030300000F01DF8FEE742B90A4600964FF4AE7163
:103040000FF2F07300F013F8FEE7456A45B90A463F
:10305000009640F25D110FF2E87300F008F8FEE709
:10306000009301A9134605222030A847FEBD204643
:10307000FFF79EBB7CB5144600F150020B46117859
:10308000002569B90FF2C8700FF2E4730FF27802ED
:1030900000904FF4B7710FF25000FFF789FBFEE785
:1030A0001169B3FBF1F201FB123109B1002076BDC9
:1030B000032201E072B1521E00EBC201096E002929
:1030C000F8D08C42F6D3B3FBF1F601FB16310029A0
:1030D000F0D11546284676BD736675645F726561EA
:1030E000645F736664700000443A5C534655445C08
:1030F000736675645C7372635C736675645F736634
:1031000064702E6300000000282573292068617315
:1031100020617373657274206661696C65642061F7
:10312000742025732E000000666C61736800000037
:103130005761726E696E673A20526561642053462A
:10314000445020706172616D6574657220686561BC
:1031500064657220696E666F726D6174696F6E204E
:103160006661696C65642E2054686520257320694A
:1031700073206E6F7420737570706F7274204A457F
:1031800044454320534644502E0000004572726F60
:10319000723A2043616E2774207265616420534641
:1031A0004450206865616465722E00004572726F3C
:1031B000723A20436865636B20534644502073691C
:1031C000676E6174757265206572726F722E204928
:1031D000742773206D757374206265203530343424
:1031E000343635336828275327202746272027449D
:1031F0002720275027292E004572726F723A2054DB
:1032000068697320726576657273696F6E285625DA
:10321000642E2564292053464450206973206E6F24
:103220007420737570706F727465642E00000000F6
:10323000436865636B20534644502068656164654C
:1032400072206973204F4B2E20546865207265767A
:10325000657273696F6E206973205625642E25642C
:103260002C204E504E2069732025642E0000000053
:10327000726561645F62617369635F6865616465FB
:103280007200000062617369635F68656164657202
:10329000000000004572726F723A2043616E27741D
:1032A0002072656164204A45444543206261736928
:1032B0006320666C61736820706172616D6574650E
:1032C00072206865616465722E0000004572726F3D
:1032D000723A205468697320726576657273696FFB
:1032E0006E285625642E256429204A4544454320EE
:1032F000626173696320666C6173682070617261DA
:103300006D657465722068656164657220697320FB
:103310006E6F7420737570706F727465642E000028
:103320004572726F723A20546865204A454445439D
:1033300020626173696320666C61736820706172DA
:10334000616D65746572207461626C65206C656E78
:1033500067746820286E6F772069732025642920A0
:103360006572726F722E0000436865636B204A4578
:1033700044454320626173696320666C6173682011
:10338000706172616D6574657220686561646572F3
:10339000206973204F4B2E20546865207461626C45
:1033A000652069642069732025642C207265766528
:1033B0007273696F6E206973205625642E25642C04
:1033C000206C656E6774682069732025642C2070FA
:1033D0006172616D65746572207461626C652070E4
:1033E0006F696E7465722069732030782530366C91
:1033F000582E0000726561645F62617369635F7477
:1034000061626C65000000005761726E696E673A18
:103410002043616E27742072656164204A454445EB
:103420004320626173696320666C61736820706118
:1034300072616D65746572207461626C652E000046
:103440004A4544454320626173696320666C617339
:103450006820706172616D65746572207461626C60
:103460006520696E666F3A004D53422D4C534220E1
:103470002033202020203220202020312020202016
:10348000300000005B253034645D20307825303218
:103490005820307825303258203078253032582066
:1034A000307825303258000034204B42204572617C
:1034B000736520697320737570706F727465642012
:1034C0007468726F7567686F7574207468652064BE
:1034D00065766963652E20436F6D6D616E6420694A
:1034E00073203078253032582E000000556E696602
:1034F0006F726D2034204B422065726173652069C4
:103500007320756E617661696C61626C6520666FAF
:10351000722074686973206465766963652E0000A3
:103520004572726F723A20556E69666F726D203403
:10353000204B4220657261736520737570706F72E5
:1035400074656420696E666F726D6174696F6E2058
:103550006572726F722E000057726974652067720F
:10356000616E756C617269747920697320312062B3
:103570007974652E000000005772697465206772C7
:10358000616E756C617269747920697320363420BC
:103590006279746573206F72206C61726765722E38
:1035A0000000000054617267657420666C61736886
:1035B00020737461747573207265676973746572C2
:1035C000206973206E6F6E2D766F6C6174696C6507
:1035D0002E000000426C6F636B2050726F74656345
:1035E00074206269747320696E206465766963650E
:1035F00027732073746174757320726567697374BF
:1036000065722061726520736F6C656C7920766FCE
:103610006C6174696C652E00466C6173682064652A
:103620007669636520726571756972657320696E6C
:10363000737472756374696F6E20353068206173BE
:103640002074686520777269746520656E61626CAC
:1036500065207072696F7220746F20706572666F7A
:10366000726D696E67206120766F6C6174696C653C
:1036700020777269746520746F2074686520737494
:10368000617475732072656769737465722E0000CA
:10369000466C617368206465766963652072657144
:1036A000756972657320696E737472756374696F7E
:1036B0006E203036682061732074686520777269E7
:1036C000746520656E61626C65207072696F72202E
:1036D000746F20706572666F726D696E672061200D
:1036E000766F6C6174696C6520777269746520749B
:1036F0006F207468652073746174757320726567D8
:1037000069737465722E0000332D42797465206FE1
:103710006E6C792061646472657373696E672E00E4
:10372000332D206F7220342D4279746520616464DA
:1037300072657373696E672E00000000342D427944
:103740007465206F6E6C792061646472657373694F
:103750006E672E004572726F723A20526561642066
:103760006164647265737320627974657320657235
:10377000726F7221000000004572726F723A20541D
:10378000686520666C617368206361706163697449
:103790007920697320677261746572207468616E44
:1037A0002033322047622F203420474221204E6FA1
:1037B0007420537570706F727465642E0000000081
:1037C000436170616369747920697320256C64209A
:1037D00042797465732E0000466C617368206465DD
:1037E0007669636520737570706F72747320256CD1
:1037F000644B4220626C6F636B2065726173652E4F
:1038000020436F6D6D616E642069732030782530C0
:1038100032582E00726561645F736664705F646124
:103820007461000061646472203C20314C203C3C97
:1038300020323400726561645F62756600000000CA
:10384000666C6173682D3E7370692E77720000009C
:10385000736675645F736664705F6765745F7375C4
:10386000697461626C655F65726173657200000006
:10387000666C6173682D3E736664702E6176616953
:103880006C61626C650000005A000000FF000000DF
:1038900062B38B0708D0521E11F8013B00F8013BC0
:1038A00000F024808B07F6D1830740F0208000BF12
:1038B000103A07D330B4B1E83810103AA0E8381005
:1038C000F9D230BC530724BFB1E80810A0E80810B3
:1038D00044BF51F8043B40F8043BD20724BF31F801
:1038E000022B20F8022B44BF0B7803707047121F85
:1038F00017D35B0009D151F8043B20F8023B1B0CA5
:10390000121F20F8023BF6D20BE051F8043B00F8FE
:10391000013B1B0A20F8023B1B0C121F00F8013B65
:10392000F3D238BF121D521E24BF11F8013B00F81C
:10393000013BF8D870478268521C8260426832B1FD
:103940000268531C036011704168491E4160704752
:1039500038B5040009D004F17005687808B900F0A2
:103960001EF800F021F8012801D1012032BD606A63
:1039700008B100F02AF800F00AF821F02A01FFE768
:10398000816000F01BF8BDE8324000F034BA2068D6
:10399000416821F4904141602068816870470021AE
:1039A0002970204600F0A7BE2420687020680168B6
:1039B000490849000160204600F060B820680168AD
:1039C00041F00101016020467047204600F0B0B987
:1039D0002DE9FC47074607F170058A4668782028DC
:1039E000144698463FD1BAF1000F14BF002C0120B5
:1039F0003AD02878012836D00121297021200021D1
:103A00006960687007F1500600F0A8FE34808146B6
:103A1000748014E039681AF8010B08850CE0BA6864
:103A2000B2F5805F04BF38690028F3D13AF8021B71
:103A30003868C1F3080101857188481E70804B46C3
:103A40007088CDF80080002810D0002280213846F0
:103A500000F0FEF90028E2D0032005E02020687085
:103A60000020287000E00220BDE8F68700224021F7
:103A7000384600F0EDF90028F0D0EDE72DE9FC41E3
:103A800004469C482168DFF870C20A680240A068BA
:103A900002432069024360690243E06902430A600D
:103AA00010274A68E06822F4405202434A60002628
:103AB0000025A369914A91421CBF206A034388688C
:103AC00020F4306003438B6061458D488D4B21D1DC
:103AD0001B6803F00303032B4CD8DFE803F0023A22
:103AE000294A0127E169B1F5004F4FF6F07840F01F
:103AF000D28067B1012F00F0A880022F00F0A880CB
:103B0000042F00F0AA80082F00F0B080B6E001F08A
:103B100005F9A4E0DFF8F0C161450BD11B6813F093
:103B20000C0360D0042B14D0082B01D00C2B0EE01A
:103B300002271FE0DFF8D4C161450CD11B6813F0E8
:103B4000300350D0102B04D0202BF1D0302B10D0CC
:103B500010E004270EE0DFF8B8C1614523D11B68EF
:103B600013F0C0033FD0402BF3D0802BE0D0C02B0C
:103B700000D108279142B5D1390006D0022F09D0D3
:103B8000042F32D0082F33D0ADE001F0C7F8002861
:103B900000F0AA80626802EB4201884202D311035E
:103BA000814228D29FE0DFF86CC161450CD11B68CF
:103BB00013F4407317D0B3F5807FCAD0B3F5007FFC
:103BC000B6D0B3F5407FC2E79142D3D11B6813F45E
:103BD000406308D0B3F5806FBBD0B3F5006FA7D0BA
:103BE000B3F5406FB3E70027C4E701F041F8CEE733
:103BF0004FF40040CEE737B1022F0AD0042F0ED089
:103C0000082F16D01BE001F089F800F08BF87941FD
:103C10000AE00021404E16EB5200494104E001F059
:103C200027F800F07FF86941002301F0E1F806462B
:103C300006E0500800F50000B0FBF2F600E00125B8
:103C4000A6F540713548814249E001F06FF806E081
:103C50006068334901EB50010CE001F009F861683C
:103C60004A0802EB4002B2FBF1F605E06068410849
:103C700001F58031B1FBF0F6B6B200E00125A6F106
:103C8000100040452FD208EA0601C6F34200014366
:103C90002068C16028E047B1012F09D0022F0CD065
:103CA000042F08D0082F0ED015E001F037F804E0FB
:103CB00001F03CF801E000F0DBFF616800EB51002F
:103CC000B0FBF1F605E06068410801F50041B1FB89
:103CD000F0F6B6B200E00125A6F11000404502D290
:103CE0002068C66000E00125002121666166284643
:103CF000BDE8F681F369FFEF003801400080004025
:103D00000024F400881002400044004000480040B5
:103D1000004C004000500040000024F400FD0F0063
:103D20000048E8016268010E560816EB0020704753
:103D300090F82410CA0706D502685368816A23F4F4
:103D400000330B43536090F824108A0706D50268AD
:103D50005368C16A23F480330B43536090F82410F6
:103D60004A0706D502685368016B23F480230B438E
:103D7000536090F824100A0706D502685368416B17
:103D800023F400430B43536090F82410CA0606D571
:103D900002689368816B23F480530B43936090F81F
:103DA00024108A0606D502689368C16B23F4005379
:103DB0000B43936090F824104A0610D502685368AC
:103DC000016C23F480130B435360016CB1F5801F29
:103DD00005D15368416C23F4C0030B43536090F842
:103DE00024100A0606D501684A68806C22F4002275
:103DF00002434A607047F8B5044604F1700500209C
:103E000068606FF07E4700F0A9FC064620680168F4
:103E10000A0708D50097334600224FF400112046C8
:103E200000F016F860B9206801684A070AD50097C3
:103E3000334600224FF48001204600F009F808B113
:103E40000320F2BD20206870A87000202870F2BD09
:103E50002DE9F041069C05460E4690461F4628680F
:103E6000C1693140B1420CBF01200020404518D14A
:103E700014F1010FF3D024B100F070FCC01B844298
:103E8000EDD22868016821F4D071016000F00CF8CF
:103E900005F1700020214170817000210170032024
:103EA00000E00020BDE8F0812868816849084900E9
:103EB000816070472DE9F84F4FF00008704BDFF834
:103EC000C491DFF8C4A14FF00F0B07468E462BE0DC
:103ED0006E4CA74214BF072406248C402C4349F89B
:103EE0002240C1431A68DEF804400A40E40348BF98
:103EF00002431A605A68DEF804400A40A40348BF2F
:103F000002435A609A68DEF804400A40E40248BF5F
:103F100002439A60DA680A40DEF80410890248BF5A
:103F20000243DA6008F10108DEF8001031FA08F007
:103F300000F09C80012202FA08F212EA0100F1D09E
:103F4000DEF80440022C18BF122C4FEA880111D170
:103F50004FEAD80407EB840C01F01C04DCF8205075
:103F60000BFA04F6B543DEF8106006FA04F42C43AD
:103F7000CCF820404FEA480C03243D689EF80460CA
:103F800004FA0CF4E44306F00306254006FA0CF6A6
:103F900035433D60D243DEF80450012D18BF022D99
:103FA00003D0112D18BF122D11D1BD68DEF80C60A1
:103FB000254006FA0CF63543BD607D68DEF80460E6
:103FC000C6F30016154006FA08F635437D60DEF8A4
:103FD000045005F00306032E07D1FE6AC5F3C005A1
:103FE000324005FA08F52A43FA62FA681440DEF80E
:103FF000082002FA0CF22243FA60DEF80420D20014
:1040000090D5DAF8002042F00102CAF8002001F051
:104010000C01DAF8002002F0010200920BFA01F51F
:10402000009A4FEA980259F8224024EA0505B7F1B0
:10403000904F08BF002418D0154CA74208BF012498
:1040400013D0144CA74208BF02240ED0124CA74232
:1040500008BF032409D0114CA74208BF042404D090
:104060000F4CA7427FF434AF052436E7BDE8F18F4B
:1040700081B0002A14BF8161816201B070470000E5
:104080000004014008000140601002400018004890
:104090000004004800080048000C004800100048D8
:1040A000001400480EB4C0B5024603A800210190D8
:1040B000009101AB0121044878440C3000F0B0FFBE
:1040C00006BC5DF810FB00BF9737000008B584B050
:1040D0000023039300290EBF01930190491E029112
:1040E000009301A904AB07487844183000F098FF0A
:1040F000019909B100220A70002858BF039805B041
:1041000000BD00BF33F8FFFF7CB5044600F026FB7E
:1041100006460CB9012076BD04F13805287801283F
:1041200001D1022076BD01212970687838B90021BB
:104130002970204600F0C5FA41F28830A860334665
:1041400020680168A26821F47061521E41EA0221D0
:10415000016000F020F901001ED1226810491368A7
:1041600066680B40E16843EA06630B43136022680C
:104170000C49536826690B40616943EA06430B43C7
:10418000A1690B43536021680A6842F001020A608A
:1041900000216960012169700021297076BD00004D
:1041A000EFFFFF00FEF8E0FF2DE9F84304460E465E
:1041B000154600F0D3FA04F1380780463878012814
:1041C00008BF022026D001213970787801281CD13F
:1041D000002179600220787000954346002200F0AB
:1041E000DDF8814698B900F017F8706A50B900956B
:1041F00043460122022100F0D2F8814638B92168F5
:104200000220C8600120787001E04FF00209002010
:1042100038704846BDE8F28300223146204600F05F
:1042200027B92DE9FC4107460C46154607F138062B
:1042300000F094FA39683278804601F12000012AB2
:1042400008BF022044D0012333707278012A3CD188
:10425000002373609CB3122272700A69521C7A6246
:104260000A69521C3A62FC6104464A6922F04062C3
:104270004A610FE001220421384600F0D4F8010021
:104280001AD1F86901782170F969481CF861786AD7
:10429000401E78624346786A00950028EAD10122E0
:1042A0000221384600F0BFF8010005D1396802202C
:1042B000C860384600F075F80122727006E0706838
:1042C00040F008007060012000E002200021317001
:1042D000BDE8F6812DE9F84306460C46914600F00C
:1042E0003DFA31688A6906F1380780463878012836
:1042F00001F1200508BF022048D001233B707878E7
:10430000012840D100237B60BCB322237B700B6962
:104310005B1C33630B695B1CF362B4624B6923F073
:10432000406343F080634B6131688A610FE0012292
:104330000621304600F077F801001BD12878B16AD9
:104340000870B06A411CB162306B401E3063434656
:10435000306BCDF800900028E9D1012202213046CF
:1043600000F061F8010005D131680220C8603046D4
:1043700000F017F801227A7006E0786840F0080033
:104380007860012000E0022000213970BDE8F2834E
:104390002021284647E00022A868009020212046DE
:1043A00041E0F8B5054600F0D9F905F138040646B4
:1043B0006078002781072ED52770286801684A0792
:1043C0000BD5026822F004020260686B01F0D0FD98
:1043D00018B1606840F004006060334628680168E6
:1043E00041F0020101600122A06800900221FFF764
:1043F000D0FF070009D129680220C8603346A068B1
:1044000000900022FFF7C4FF0746380003D1286858
:1044100000F003F860703846F2BD416921F0406158
:104420004161012070472DE9F041069C05460E468A
:1044300090461F462868816816EA010018BF0120CF
:10444000404512D014F1010FF4D000F087F9C01BE1
:10445000844201D3002CEDD1042085F83900E86BAB
:1044600040F00100E863012000E00020BDE8F08199
:10447000F8B54B6A002B18BFB2F1406F03D08B6ABE
:1044800004685B1E23618C69002C42D006680B6AAD
:1044900013B38C68F461CD6A0B6B4C698F69D1F8EA
:1044A00000C01D434B6B1D434B6A1D430B6945EA1E
:1044B00084451D430B6A1D43CB6943B1CC6825433A
:1044C0001D433D434CEA0505154375613DE03D4301
:1044D0004CEA05052A431AE0CF6A0B6BD1F800C0FD
:1044E0001F434B6B1F434B6A1F434B6947EA83478C
:1044F000CB6943B1CD682F431F433C434CEA0404CE
:104500001443746121E03C434CEA04042243726189
:10451000F1BD0B6A0BB305688B68EB61CE6A0B6B60
:104520004C698F691E434B6B1E434B6A1E430B69DC
:1045300046EA84461E430B6A1E43CB694BB1CC68E6
:1045400026431E433E4316436E61B2F1406F19D1BC
:10455000F1BD3E4332436A61F1BDCB69B3B1CD6A6F
:104560000C6B4E6925434C6B25434C6A2543CC6844
:1045700045EA8645254304682B431343B2F1406F57
:10458000636111D0006849688161F1BD4B6A5BB11C
:10459000CD6A0C6B006825434C6B496925432B435E
:1045A00043EA81431A434261F1BD0000002201F059
:1045B000FBBC000000F10103810704D010F8011BCF
:1045C00089B18107FAD10268B2F10131914311F04A
:1045D000803F04BF50F8042FF6E710F8011B11B11B
:1045E00010F8011BFBE7C01A704700005FEA000CDF
:1045F00080EA01039B0715D1830706D011F8013B20
:1046000000F8013BB3B18307F8D10A68B2F1013376
:1046100023EA020313F0803F02BF40F8042B51F855
:10462000042FF3E711F8013B00F8013B13B111F837
:10463000013BF9E760467047FCF795BD80B54148FE
:10464000816841F001018160816801F00101009100
:104650000099016841F080510160006800F08050CD
:1046600000900098032001F0C8FC002200216FF0A8
:104670000B0001F0CFFC002200216FF00A0001F0D6
:10468000C9FC002200216FF0090001F0C3FC0022E8
:1046900000216FF0040001F0BDFC002200216FF04A
:1046A000030001F0B7FC002200216FF0010001F0CF
:1046B000B1FCBDE80840002200214FF0FF3001F0BE
:1046C000A9BC00682049884200D0704780B51F48C7
:1046D00086B0016841F4807101604FF47C4100684C
:1046E00000F4807000F025F80A20049105900292F1
:1046F00001A9174819E000681649884200D07047A0
:1047000080B5154886B0016841F4804101604FF4DE
:10471000C061006800F4804000F00BF807200491AD
:104720000590029201A94FF09040FFF7C3FB07B03C
:1047300000BD009002220098019100200390032107
:104740007047000058100240001000A050100240B6
:104750000010004800380140601002400148006825
:10476000704700BFD80800202DE9F843040044D06A
:104770002078DFF85066DFF84076C10626D5B868A5
:1047800010F00C0F3BD13968880702D5A0690028CA
:1047900033D0396808074EBF396871680909206A43
:1047A00001F0F001814206D200F0CAFA002824D1BB
:1047B00000F0C5F905E000F0C2F9206A00F0C0FA87
:1047C000D8B900F055FABA6800F0CBF92078C107E3
:1047D00064D500F0D2F9082808D000F0CEF90C28F2
:1047E00002BFF86800F0030003282CD13968880361
:1047F00054D56068002840F0F28001209DE1A06956
:1048000088B1396841F001013960FFF7A7FF05461B
:104810003868810700F1E080FFF7A0FF401B032804
:10482000F6D3032089E13868400840003860FFF77C
:1048300095FF054639688807C8D5FFF78FFF401BED
:104840000328F7D3EDE76068B0F5803F06D0B0F5F8
:10485000A02F396807D141F480213960386840F4CD
:104860008030386006E021F4803139603A6822F403
:1048700080223A60606860B1FFF770FF05463968D2
:10488000880300F1AC80FFF769FF401B6528F6D371
:10489000C7E7FFF763FF05463868810340F19F8053
:1048A000FFF75CFF401B6528F6D3BAE7FFF756FF1A
:1048B000401B0328C0F0BF80B3E7E06880B13968CF
:1048C00041F480713960FFF749FF054638684105BA
:1048D00000F1E080FFF742FF401B0328F6D3A0E77A
:1048E000386820F480703860FFF738FF0546396873
:1048F000480576D5FFF732FF401B0328F7D390E732
:104900007068400840007060FFF728FF0546706837
:10491000810740F19480FFF721FF401B0328F6D365
:104920007FE70528306806D140F004003060316828
:1049300041F0010105E0400840003060316821F09D
:1049400004013160A06841F2893868B1FFF706FFC1
:1049500081463168880700F1AE80FFF7FFFEA0EBCB
:1049600009004045F5D35CE7FFF7F8FE8146306863
:10497000810740F1A080FFF7F1FEA0EB0900404560
:10498000F5D34EE7FFF7EAFE401B0328C0F0AA80EC
:1049900047E7FFF7E3FE001B0328C0F0C98040E7AC
:1049A0003968080106D43868810003D4F8688008A3
:1049B0008000F860F968DFF810040140F960FFF743
:1049C000CDFE04463868810140F1B680FFF7C6FE8F
:1049D000001B0328F6D324E700F0B1F8F6E62078B0
:1049E00081071AD500F0C9F8042809D000F0C5F8ED
:1049F0000C2802BFF86800F0030002287FF45DAFC6
:104A00003968480502D5E06800285FD079682069D8
:104A100021F0F85141EA00617960217808070ED54C
:104A2000606900283FF46CAF716841F0010171606A
:104A3000FFF794FE0546706881077FF537AF217850
:104A400048073DD5B86D0025C10009D4B86D40F0C8
:104A50008050B8650125B86D00F080500090009836
:104A6000DFF86883D8F80010C8051BD4D8F8000018
:104A700040F48070C8F80000FFF770FE8146D8F857
:104A80000010C8050ED4FFF769FEA0EB090003284B
:104A9000F5D3C6E67868216920F0F85040EA016055
:104AA0007860BAE7A06801287FF43BAF306840F037
:104AB0000100306046E71DB1B86D20F08050B86548
:104AC000A06AC8B3B96801F00C010C293FF495AE97
:104AD0000228386820F0807038607FF461AFFFF7FB
:104AE0003DFE0546396888013FF54CAF206B616B90
:104AF000401E090241EA0011A06B000941EA404151
:104B0000E06A0143E06B4008401E41EA4051206CDE
:104B10004008401E41EA4061F960386840F080700A
:104B20003860F96841F08071F960FFF717FE0446BC
:104B3000386881017FF52DAF0020BDE8F283386829
:104B400040F0080038603968206A21F0F001014324
:104B500039607868E16920F47F4040EA012078609C
:104B60007047DFF86C12C2F30312895CDFF84C2245
:104B7000C8401060002001F099BAB86800F00C003D
:104B800070472DE9F8430400884665D0DFF8446299
:104B9000306800F00700404502D200F05FF85BD1BA
:104BA0002178DFF81452C80745D56068032802D180
:104BB00029688A0107E0022802D129688A0302E0F5
:104BC00018B929688A0703D446E02A68510543D5F5
:104BD000A968890840EA8100A86041F28939FFF795
:104BE000BDFD0746A868616800F00C00B0EB810FBE
:104BF00021D0FFF7B3FDC01B4845F3D3032018E0D5
:104C00002078410705D5A968E06821F4E0610143F7
:104C1000A9602078010706D5A868216920F46050B2
:104C200040EAC100A86000F023F8AA68FFF799FFE6
:104C30000020BDE8F2832078810705D5A968A06827
:104C400021F0F0010143A960306800F007008045C1
:104C5000D6D200F003F8D3D00120EAE73168C908C2
:104C600048EAC1013160306800F0070040457047F4
:104C700051498B680022002013F00C0F09D08B687B
:104C800003F00C030C2B02BFCB6803F00303012BD2
:104C900013D10A68130704D4494A1368C3F30322E3
:104CA00002E00A68C2F303124C4B53F822208B68CF
:104CB00013F00C0F0ED110460CE08B6803F00C03C0
:104CC000042B08BF464805D08B6803F00C03082B63
:104CD00008BF44488B6803F00C030C2B1AD1CB6837
:104CE000C868C0F30210401C03F00303022B03D07A
:104CF000032B08BF3B4A00E0394AB2FBF0F2C86818
:104D0000C0F306204243C868C0F34160401C400025
:104D1000B2FBF0F0704729480068704727482E4AD8
:104D2000006813683049C3F3022206E023482A4A88
:104D3000006813682C49C3F3C222895CC8407047DD
:104D40007CB52A4E054630680024C10002D501F02A
:104D5000C1F90EE0306840F080503060316801F0F9
:104D600080510091009801F0B5F9316821F080512F
:104D70003160B0F5007F04D1802D0CD9A12D09D36D
:104D800004E0802D88BF032405D801D1022402E06D
:104D9000702D00D101240F480168C90844EAC101FF
:104DA0000160006800F00700A04201D0012076BD3C
:104DB000002076BD00000000001002400C00002022
:104DC0009410024090100240FFFFEEFE0070004081
:104DD000D87600080020024008100240E87600085B
:104DE0000024F40000127A009C7800085810024059
:104DF000B3BBD9B1B2F5803F7DD2022A1ED98C4611
:104E0000B1FBF2F102FB11C31B0443EA1043B3FBF5
:104E1000F2FC02FB1C3380B240EA0343B3FBF2F026
:104E200002FB103240EA0C4000237047022A05D9E9
:104E30008446B0FBF2F002FB10C270474AB105D1C4
:104E400000F0010249085FEA3000704700220023A9
:104E5000704701F07DB90B0002000021002070476F
:104E6000904271EB030CF6D3B3F5803F2FD2F0B52F
:104E7000B3FA83F7B1FA81F4A7F10F0E3D1B53404B
:104E8000CEF1200602FA0EF2F3415340B5F10F07BE
:104E900046D80F3C2C444140C4F12006A040F141CB
:104EA0004140B1FBF3F603FB1611A2FB0645001BC4
:104EB000A94102D2761E8018594180EA010221FAE6
:104EC0000EF362FA0EF200215A403046F0BD30B4C3
:104ED000B1FBF3FC03FB1C11A2FB0C45001BA94119
:104EE00003D2ACF1010C8018594130BC02460B468C
:104EF000604600217047B2F1807F65D3F0B5B2FA09
:104F000082F7B1FA81F4C7F10F063D1B22FA06F3CE
:104F100007F1110EF24120355A40B5F10F07B8D90B
:104F20004140C4F12006A040F1414140B1FBF3FCF7
:104F300003FB1C11A2FB0C45001BA94103D2BCF1D1
:104F4000010C801859410F2F12D30F3FC90341EABA
:104F50005041B1FBF3F603FB1611A2FB0645D4EB5F
:104F6000C030A94102D2761E8018594146EACC3C95
:104F700007B34140C7F12006B840F1414140B1FBC1
:104F8000F3F603FB1611A2FB0645001BA94102D252
:104F9000761E8018594180EA010221FA0EF3C7F10A
:104FA000200462FA0EF20CFA07F05A402CFA04F1CF
:104FB0003043F0BD80EA010221FA0EF3002162FACB
:104FC0000EF260465A40F0BD8C46B1FBF2F102FB96
:104FD00011C31B0243EA1063B3FBF2FC02FB1C3358
:104FE0001B024CEA002043EA1063B3FBF2FC02FB15
:104FF0001C331B024CEA002043EA1063B3FBF2FCB3
:1050000002FB1C331B024CEA002043EA1063B3FB93
:10501000F2FC02FB1C324CEA002000237047000027
:105020002DE9F84F0FF2B019A2B0D9E90045CDE94A
:1050300000452C9EDFF80C9C04918DF84360002104
:105040000FF29C140D9112944FF0FF3682461546D4
:105050001F460FE0AB4644461BF8011B0498D0479F
:105060000028049000F0A6800D98401C641E0D904E
:10507000F2D145442878252807D1002107910891CD
:1050800009910A910B910C910FE06A46314628462E
:1050900001F090F85FEA000801D10D98A4E0D9D59D
:1050A0004FF00108E5E741F0010115F8010F202854
:1050B000F9D023280CD02B2804D02D2805D0302857
:1050C00009D079E041F00201EFE741F00401ECE79B
:1050D00041F00801E9E741F01001E6E700200F90F8
:1050E00009E00F98484505DA00EB800302EB430224
:1050F000303A0F926D1C2A78A2F130000A28F0D3C2
:105100002A782E2A18BF0E9623D115F8010F2A28C7
:1051100007D1386838606D1C50F8042B38600E9247
:1051200017E02D280CBF15F8010B002000220E926D
:105130000AE040B90E9A4A4505DA02EB820403EB15
:105140004403303B0E936D1C2B78A3F130020A2AE6
:10515000EFD3ADF840101298297801F037F808B174
:1051600015F8010B8DF842009DF84200682804BF35
:105170002978682903D162208DF8420007E06C2865
:1051800004BF28786C2803D171218DF842106D1C62
:1051900013A806903A4615F8013B02A9504600F0C4
:1051A00063F838B913AA02A9504600F0C5F90028DF
:1051B0007FF560AF304617E02A288FD13A683A6011
:1051C00052F8040B3A6000280F9003D540420F902C
:1051D00041F004016D1C93E7000000000000000096
:1051E000686A6C747A4C000023B0BDE8F08F6228C6
:1051F00020D0682811D06A2803D06C2827D07128C5
:1052000025D10868C01D20F007000860D0E9002300
:1052100008300860194610467047002A0A680A607C
:10522000106803D0121D0A6000B217E0121D0A6058
:1052300080B217E0002A0A680A60106803D0121DC5
:105240000A6040B20AE0121D0A60C0B20AE0002AF9
:105250000A680A60106803D0121D0A60C1177047FF
:10526000121D0A60002170477CB50D4611461C4690
:105270002E69B4F1250200F04D811C3A00F08680C1
:10528000121F022A40F282800E3A00F00781521F5C
:105290005AD0093A7AD0921E16D0521E35D0521EDC
:1052A000022A73D9121F30D0521F00F09A80521E6A
:1052B0004AD0521E00F0E480D21E00F0FD80921E03
:1052C00042D0D21E40D02BE195F83A206C2A09D06A
:1052D0006869421C6A610A680A6052F8043B0A6005
:1052E000335427E10A680A6052F8043B0A6000213F
:1052F000009301914FF0FF322A6329466A4600F07D
:1053000096F9002840F1168101E195F83A00012252
:10531000FFF76DFFC5E900010023994204DA6869CF
:10532000411C69612D210DE0288F810704D5686932
:10533000411C69612B2105E0C00722D56869411C29
:105340006961202131541CE095F83A000022FFF7F2
:105350004EFFC5E9000195F83800010711D5D5E9E0
:1053600000230020834208BF82420AD044F020007C
:10537000782806D1686930213154401C411C69618C
:105380003454214668693044E86083E00868C01DF1
:1053900020F007000860D0E9002308300860C5E964
:1053A0000023D5E90001C80F04D06869411C696178
:1053B0002D210DE0288F810704D56869411C6961A2
:1053C0002B2105E0C00704D56869411C69612021D3
:1053D000315468693044E8602146284600F032FACA
:1053E000A8E005F13A02507820B14FF0FF340FF6F3
:1053F000FC2070E01078622808D0682824D06A2841
:1054000012D06C282ED071280ED02BE00A680A60CA
:1054100052F8040B0A6020B94FF0FF340FF6E42075
:1054200059E0E96A017085E00A680A6052F8040BE5
:105430000A6020B94FF0FF340FF6C8204BE0EA6A4B
:10544000D317C0E9002375E00A680A6052F8040B1C
:105450000A6020B94FF0FF340FF6A8203BE0E96A5C
:10546000018067E00A680A6052F8040B0A6020B9FC
:105470004FF0FF340FF68C202DE0E96A016059E00F
:105480000A680A6052F8040B0A600021C5E90001AD
:10549000EE607821284600F029F94BE06C2285F86F
:1054A0003A200B680B6053F8042B0B6052BB4FF093
:1054B000FF340FF684200EE095F83A206C2AF0D0E5
:1054C0000868086050F8044B0860EC603CB94FF085
:1054D000FF340FF6482000F085FE201A76BD2E6BB3
:1054E000002E04D52046FFF765F8044608E0324652
:1054F0000021204600F098FE002814BF041B34460B
:10550000AC6117E0294600F092F8002812D54FF060
:10551000FF3076BD6869411C69612521315409E07D
:105520006969481C686125227254210002D0411C1F
:1055300069613454002076BD2DE9F0410E460546E0
:10554000716B7069B46A091A306A091AB069091A6C
:10555000706A091AF069091A96F838000C1B41079D
:1055600090460DD4002C0BDD2746B0682021A847BB
:105570000028B06057D0F06A401C7F1EF062F4D162
:10558000736942463146284600F099FC00284AD10A
:10559000376A002F0ADDB0683021A8470028B060C4
:1055A00041D0F06A401C7F1EF062F4D1B369F2680A
:1055B0003146284600F083FCA8BB776A002F09DD3E
:1055C000B0683021A847B06068B3F06A401C7F1E05
:1055D000F062F5D1F068B169F369421831462846A6
:1055E00000F06DFCF8B9B76A002F09DDB068302112
:1055F000A847B060B8B1F06A401C7F1EF062F5D1D8
:1056000096F8380041070BD5002C09DDB068202141
:10561000A847B06038B1F06A401C641EF062F5D152
:105620000020BDE8F0814FF0FF30BDE8F0812DE9AA
:10563000F8470D46A3B02F6B002F8146904648BF18
:105640006FF0004700F01CFE696B40180FF6041164
:105650008128D1E90023CDE9012328BF4FF0FF3095
:105660003ED20024002F2FDDD8F8001001AA684692
:1056700000F0A2FD0646002E35D4D8F8000008B987
:10568000761E30D4B7421FDB6869301881280AD3F0
:105690000020686303AA29464846FFF74DFF04002F
:1056A00012D40020686103A8D5F814A032466946D8
:1056B0005044FEF7EDF8B244C5F814A058F8040BB6
:1056C000002818BFBF1BCDD12CB903AA29464846D4
:1056D000FFF732FF044614B9002068616863204672
:1056E00024B0BDE8F0874FF0FF34F8E72DE9FC4720
:1056F00004468A462569BAF16F0F08BF082605D00F
:105700004AF02001782914BF0A2610263C27D4E944
:105710000023BAF1640F18BFBAF1690F9046994699
:1057200006D100218B4203DAD8F1000869EB490960
:105730000020814508BF80451FD1206BE8B9082EA5
:105740004CD194F83800010748D530203B2785F824
:105750003B0043E000280ED594F8380000F0140018
:10576000102808D1626B6069121A206A121A511A45
:105770000029C8BF2162BDE8F3878DF800A040462C
:1057800049463246F317FFF733FB3032D2B27F1E61
:105790003A2A019704DB9DF80000A0F151018A1814
:1057A000EA55404649463246F317FFF721FB80464B
:1057B00089460020814508BF804503D0E068E9198B
:1057C0008842DCD3082E09D194F83800010705D5AA
:1057D000E95D302902D07F1E3020E855C7F13C0139
:1057E000A161E819E060206B8142B3DA411A2162BD
:1057F0004FF6EF70218F01402187BDE8F3872DE937
:10580000D04306460F4614464FF00008DFF83894A0
:1058100012E0E00707D542464B463046394600F0D5
:1058200035FD06460F464046494642464B4600F087
:105830002DFD641080468946002CEAD13046394659
:10584000BDE8D0832DE9F34F054641F020048DB02B
:10585000D5E90089612C02AE09D0286B002848BF29
:10586000062003D408BF672C01D101202863D5E9A5
:10587000002358004015401C0ED119030CD0032002
:10588000A8619DF8380061381A2802D20FF2CC6165
:1058900011E00FF2CC610EE058004015401C0FD112
:1058A00019030DD10320A8619DF8380061381A282A
:1058B00014D30FF2B461E8680322FDF7E9FFD3E1E6
:1058C000194621F00043B3F5801F10460DD2002782
:1058D000BB4208BFBA42019703D111E00FF28461C5
:1058E000E9E701AA00F0A4FD0AE0DFF8607307EB26
:1058F0001352DFF85C3301921940DFF85833194333
:10590000C5E90001612C0ED1E86830210170811CCD
:10591000E9609DF8381061290CBF78215821417049
:105920006869801C6861D5E900AB2BF0004300205A
:105930002AF00002834204BF8242002300F05A8111
:10594000612C40F0A980286B00284CBF2120401C0E
:1059500000904046009F7F1C49460022002300F033
:105960009FFDD94601988DF8082038BF89F000497D
:10597000001F0190002FD0460DF1090040F349812E
:1059800040F2FF71DFF8D0B20C910646404649461E
:105990000022002300F09CFD80F03A814800400D79
:1059A00000F11C0210D0002A0EDD0C98824205DBAB
:1059B00009F0004040EA0B01002013E0A448084031
:1059C00040EA025140460DE029F00043002028F053
:1059D0000002834208BF82420FBF40461C2240465D
:1059E00000F08EFD8046894600F028FEFF1F002F44
:1059F000044609DD00F040FE02460B46404649469B
:105A000000F04CFE80468946F01D072104E004F0BA
:105A10000F0200F8012D2411002C01DD491EF6D5DE
:105A2000491E5CBF002200F8012DF9D5ECE00020F2
:105A3000194602AA0A4400E05B1E12F80149491EF9
:105A40008442F9D00F2804D10DF10900425C521CA8
:105A50004254002904D50198001D02AE5B1C019040
:105A6000591E12D49DF838007218A0F13A04177824
:105A700030375FFA87F8B8F1390FC8BFA044491E24
:105A800002F80189F3D58DF83800286B002840F121
:105A9000B080591E2963ACE04046494600220023ED
:105AA00000F0FEFC019938BF89F0004947F2975099
:105AB00041436A4A91FBF2F20192D2F1070204DDFE
:105AC00040464946FFF79BFE0AE0524200206449E7
:105AD000FFF795FE02460B464046494600F050FE51
