:020000040800F2
:10000000E00B00209D010008171B0008D91A00080A
:10001000151B000883070008912400080000000059
:10002000000000000000000000000000911F000818
:100030008507000800000000391B0008931F000816
:10004000B7010008B7010008B7010008B7010008B0
:10005000B7010008B7010008B7010008B7010008A0
:10006000B7010008B7010008B7010008B701000890
:10007000B7010008B7010008B7010008B701000880
:10008000B7010008B7010008B7010008B701000870
:10009000B7010008B7010008B7010008B701000860
:1000A000B7010008B7010008B7010008B701000850
:1000B000B7010008B7010008B7010008B701000840
:1000C000B7010008B7010008B7010008B701000830
:1000D000B7010008B7010008B7010008B701000820
:1000E000B7010008B7010008B7010008B701000810
:1000F000B7010008B7010008B7010008B701000800
:10010000B7010008B7010008B7010008B7010008EF
:10011000B7010008B7010008B7010008B7010008DF
:10012000B7010008B7010008B7010008B7010008CF
:10013000B7010008B7010008B7010008B7010008BF
:10014000B7010008B7010008B7010008B7010008AF
:10015000B7010008B7010008B7010008B70100089F
:10016000B7010008B7010008B7010008B70100088F
:10017000B7010008B70100080000000000000000FF
:10018000B7010008B7010008DFF80CD000F078FADA
:100190000048004785320008E00B002006488047F1
:1001A00006480047FEE7FEE7FEE7FEE7FEE7FEE75C
:1001B000FEE7FEE7FEE7FEE72520000889010008CC
:1001C0002DE9F05F0546002092469B46884606468C
:1001D000814640241BE0284641464746224600F01F
:1001E0007CF853465A46C01A914110D3114618461E
:1001F000224600F063F82D1A67EB01084F462246AD
:100200000120002100F05AF817EB00094E41201E92
:10021000A4F10104DFDC484631462A46434600F09B
:1002200000B830BCBDE8C09F40EA01039B0703D083
:1002300009E008C9121F08C0042AFAD203E011F825
:10024000013B00F8013B521EF9D27047D2B201E0E7
:1002500000F8012B491EFBD270470022F6E710B5CB
:1002600013460A4604461946FFF7F0FF204610BD24
:10027000421C10F8011B0029FBD1801A704703466D
:1002800011F8012B00F8012B002AF9D1184670470C
:1002900030B50B46014600202022012409E021FA56
:1002A00002F59D4205D303FA02F5491B04FA02F553
:1002B0002844151EA2F10102F1DC30BD202A04DB26
:1002C000203A00FA02F1002070479140C2F1200369
:1002D00020FA03F3194390407047202A04DB203AA8
:1002E00021FA02F00021704721FA02F3D040C2F156
:1002F000200291400843194670472DE9FE4F804681
:1003000081EA0300C00F0C46009021F0004123F069
:100310000045B8EB0200A94105D24046214690466F
:100320001C460B46024623F00040104347D0270DE1
:10033000C7F30A00C3F30A510290401A0190402803
:100340006BDAC3F3130040F4801B0098924620B18F
:100350000023D2EB030A63EB0B0B01985946C0F163
:1003600040025046FFF7AAFF06460D465046594642
:10037000019A00F097F910EB08006141002487EA28
:10038000115284EAE7731A4340D0009A62B3019A8B
:10039000012A4FEA075215DC001B61EB02014FF006
:1003A000004202EA0752CDE90042001C41F58011EB
:1003B00032462B4600F097F903B000F045B84046AE
:1003C0002146F9E7001B61EB0201001C41F5801397
:1003D00000185B412018A2F5001747EB030140EA23
:1003E000D570B6196D4111E06D084FEA360645EA41
:1003F000C0754FEA0752001B61EB0201001C41F57A
:10040000801149084FEA30000019514132462B460D
:1004100003B000F01CB800F057B90098012240006A
:100420000023D0EB020263EBE073009821464FEA11
:10043000E074B8EB000061EB0401E9E783F00043EE
:100440005BE781F0004158E730BCBDE8C08F30BCAD
:10045000BDE8C04FFFF7DFBF2DE9FE4F81EA03047F
:1004600004F0004421F0004100944FF0000B23F011
:10047000004350EA01045ED052EA03045BD0C3F3A8
:100480000A54C1F30A552C44A4F2F3340194A0FB9E
:100490000254C1F3130141F48011C3F3130343F475
:1004A000801301FB024400FB034E840A970A44EACE
:1004B000815447EA8357A4FB076802958D0A05FB20
:1004C00007854FEA932C04FB0C542705029D4FEA45
:1004D000065847EA1637B5EB08056EEB070C870E92
:1004E000920E47EA811742EA8312A7FB0201B6EB9C
:1004F0000B0164EB00042B0D43EA0C335E1844EB54
:100500001C50DA465146E7FB0201C5F313044FEADB
:100510000B3343EA14534FEA0432019C43EA0603C7
:10052000A4F10C040294009CCDE900B400F0DBF8C7
:1005300003B000F003B800200146F9E730BCBDE885
:10054000C08F2DE9F04D81EA030404F0004B21F047
:10055000004514464FF0000A23F0004150EA05021E
:1005600020D054EA01021DD0C5F30A570246C5F354
:100570001303C1F31300C1F30A5640F4801543F48A
:100580008013A7EB0608101BD64608F2FD3873EB64
:10059000050002D308F1010801E092185B41B8F1AF
:1005A000000F03DA00200146BDE8F08D00204FF473
:1005B0008011064684460EE0171B73EB050705D332
:1005C000121B63EB050306434CEA010C49084FEA92
:1005D000300092185B4150EA0107EDD152EA030066
:1005E00012D082EA040083EA0501084305D0101BFB
:1005F000AB4106D20122002306E000224FF0004367
:1006000002E06FF0010253101AEB06004CEB0851A8
:1006100010EB0A0041EB0B01BDE8F04D00F054B8BF
:10062000C1F30A52C1F3130140F2FF3341F48011C8
:100630009A4202DA00200146704740F233439A4260
:10064000A2F2334202DC5242FFF747BEFFF736BE4A
:1006500030B5041E71F1000404DB4FF00044404249
:1006600064EB0101141E73F1000405DB1C464FF01E
:100670000043524263EB0403994208BF904230BDED
:10068000064C074D06E0E06840F0010394E80700DF
:1006900098471034AC42F6D3FFF77AFDA45C00080B
:1006A000C45C0008202A06DBCB17203A41FA02F08E
:1006B00043EAE07306E041FA02F3D040C2F12002BF
:1006C000914008431946704710B5141E73F1000499
:1006D00008DA401C41F1000192185B411A4301D134
:1006E00020F0010010BD2DE9F04D92469B4611B15E
:1006F000B1FA81F202E0B0FA80F220329046FFF7C0
:10070000DDFD04460F4640EA0A0041EA0B0153466C
:100710005A46084313D0114653EA010019D0C8F1D4
:1007200040025046FFF7D9FD05460E465046594651
:100730004246FFF7C3FD084305D0012004E02046F0
:100740003946BDE8F08D0020054346EAE0762C43AB
:1007500037430A986305E40AA0EB08000022FD0A6B
:1007600044EA47540A3002D500200146E9E7010572
:1007700010196941DDE9084500196941BDE8F04DEE
:10078000A2E7FEE77047C8B101680A6822F00E02CE
:100790000A6001680A6822F001020A6090F84410B9
:1007A000036C01F01C02012101FA02F25A6080F888
:1007B0002510002180F8241008467047012070475A
:1007C0002DE9F84FDFF898B100234FF0010C4FF0FE
:1007D000030A4FF00F090BF1040EB9E00CFA03F411
:1007E000224070D04D68022D01D0122D0ED1DD08AF
:1007F00000EB8508D8F820505E07F70E09FA07F6D7
:10080000B5430E69BE402E43C8F8206007685E00FD
:1008100091F804800AFA06F508F00308AF4308FAD5
:1008200006F848EA0708C0F800804F68012F05D095
:10083000022F03D0112F01D0122F13D1D0F808802E
:10084000CF6828EA0508B74047EA08078760D0F86C
:1008500004800F7928EA0408C7F300179F4047EA8D
:1008600008074760D1F804806FEA0807BF0706D180
:10087000C76AA743C8F3C0049C403C43C462C46831
:10088000AC438D68B5402543C5604C68E4005ED537
:10089000344C256E45F001052566246E23F00305D2
:1008A00004F001040094304C2E19B4689D072F0FFA
:1008B00009FA07F5AC43B0F1904F05D02B4DA84293
:1008C00004D101251CE042E0002519E0284DA84292
:1008D00001D1022514E0274DA84201D103250FE0E4
:1008E000254DA84201D104250AE0244DA84201D19A
:1008F000052505E0224DA84201D1062500E0072587
:10090000BD402543B560DBF800405D464E6894432A
:10091000F60300D514432C60DEF8004075464E689F
:100920009443B60300D514432C600D4D08352C6854
:100930004E689443F60200D514432C60084D0C35E4
:100940002C684E689443B60200D514432C605B1C9F
:100950000A6832FA03F57FF441AF00F013B80000E3
:100960000004014000100240000001400004004863
:1009700000080048000C004800100048001400481F
:100980000018004818BCBDE8E08F0AB181617047CB
:100990008162704701480068704700000000002035
:1009A00002480168491C01607047000000000020F7
:1009B00010B5032000F07CF8002000F005F800F0EE
:1009C00017F8002010BD000010B5044607484FF48A
:1009D0007A710068B0FBF1F000F0B3FF002221460D
:1009E000501E00F045F8002010BD0000040000205B
:1009F0001E4808B5016E41F001010166016E01F06B
:100A000001010091816D41F080518165806D00F0A0
:100A100080500090032000F04BF8002211466FF048
:100A20000B0000F025F8002211466FF00A0000F0DC
:100A30001FF8002211466FF0090000F019F800229B
:100A40001146501F00F014F800221146101F00F04C
:100A50000FF800221146901E00F00AF80022BDE8AF
:100A600008401146501E00F003B80000001002407C
:100A7000F0B40E4B1B680C46C3F30223C3F1070509
:100A8000042D00D90425191D072901D2002300E0F7
:100A9000DB1E012606FA05F1491E214099409E40C1
:100AA000761E16403143F0BC01F036B80CED00E084
:100AB000064900F0070208684FF6FF03184040EAB5
:100AC0000220034A10430860704700000CED00E06C
:100AD0000000FA051549B0F5007F0868C0F3412011
:100AE00009D0022805D0086820F4C06040F4806076
:100AF0000860002070470128FBD0086820F4C0601F
:100B000040F4007008600A480A4A0068B0FBF2F03E
:100B10003222504300E0401E10B14A695205FAD417
:100B200048694005E5D5032070470000007000408B
:100B30000400002040420F000248006800F4C0603A
:100B40007047000000700040F8B504460025FFF72C
:100B500021FF064694F83900800736D5002084F836
:100B600038002068016849070BD5016821F00401AD
:100B70000160606BFFF707FE18B1E06B40F0040006
:100B8000E0632068016841F002010160206C009080
:100B9000334601220221204601F07EF8050014D1DF
:100BA00021680220C860206C00903346002220217A
:100BB000204601F071F8050007D12068416921F055
:100BC00040614161012084F839002846F8BD2DE9D3
:100BD000F84F17468B460446FFF7DCFE824694F832
:100BE000380001280ED0012684F8386094F83900C6
:100BF0004FF00008012807D0022584F838802846E5
:100C000000F028B80220FBE7C4F83C804FF002094E
:100C100084F839905346002220212046009701F0A5
:100C20003BF80500E9D100225946204600F085FF37
:100C3000DBF8240058B953460122022120460097D0
:100C400001F02AF80500D8D12168C1F80C9084F889
:100C50003960D2E718BCBDE8E08F0000F8B5044663
:100C6000FFF798FE06465CB194F83800012809D0D9
:100C7000012784F8387094F83900002520B10BE082
:100C80000120F8BD0220F8BD84F83850204600F05D
:100C90003DF841F28830206420680168A2686FF056
:100CA000FF0321F4706103EB022211430160206C09
:100CB0000090334600222021204600F0EDFFE8B9E5
:100CC00021680A680F4B1A40237942EA0362E368FD
:100CD0001A430A60D4E905121143226853680A4E88
:100CE0003340268A43EA06431943516021680A6863
:100CF00042F001020A60E56384F8397084F83850E4
:100D0000F8BD0000EFFFFF00FEF8E0FF00B500684F
:100D10000E4987B0884217D10D48016D41F48071AA
:100D20000165006D694600F4807005904FF47C40C9
:100D300000900220019000200290032003900A20DE
:100D400004900448FFF73CFD07B000BD001000A070
:100D500000100240001000482DE9F84F15460F46DC
:100D60000446FFF717FE82462068816994F8382010
:100D700000F12009012A0DD0012684F8386094F88A
:100D800039204FF00008012A06D0022084F838806C
:100D900000F044B80220FBE7C4F83C80BFB3222235
:100DA00084F839200269521C22630269521CE262F3
:100DB000A762426922F0406242F08062426120688C
:100DC00081610EE00621204600F066FFE0B999F847
:100DD0000000A16A0870A06A401CA062206B401E3F
:100DE0002063206B53464FF0010200950028E9D1A3
:100DF0004FF00201204600F04FFF28B92168022081
:100E0000C8602046FFF7A0FE84F83960BEE7FFE720
:100E1000E06B40F00800E0630120B7E718BCBDE8D4
:100E2000E08F00002DE9F84F15460F460446FFF706
:100E3000B1FD8246206894F8381000F1200901299C
:100E40000ED0012684F8386094F839104FF000086D
:100E5000012907D05FF0020084F8388000F040B824
:100E60000220FBE7C4F83C809FB3122184F83910BC
:100E70000169491C61620169491C2162E76141699C
:100E800021F0406141610EE00421204600F004FFA2
:100E9000E0B9E069017889F80010E069401CE06180
:100EA000606A401E6062606A53464FF0010200951E
:100EB0000028E9D14FF00201204600F0EDFE28B9EC
:100EC00021680220C8602046FFF73EFE84F83960A2
:100ED000C2E7FFE7E06B40F00800E0630120BBE7FA
:100EE00018BCBDE8E08F00002DE9F84F044600274C
:100EF0000088E54D3E46010504F1200B1DD5606ECE
:100F000078B1B0F5800F11D0B0F5000F04D0B0F576
:100F1000400F22D001270FE0E86840F48030E860FD
:100F20001BE00021201D00F0DBFE03E000215846FD
:100F300000F06CFF070010D03E462088C00426D584
:100F4000A06EC0B1B0F1807F1AD0B0F1007F0DD09B
:100F5000B0F1407F19D0012718E0D5F88800616E04
:100F600020F440000843C5F88800E6E7E86840F44C
:100F70008030E86009E00021201D00F0B1FE03E0B0
:100F80000021584600F042FF0746F7B13E46206870
:100F900080033AD5A86D4FF00008C00009D4A86DB1
:100FA00040F08050A865A86D4FF0010800F0805017
:100FB0000090DFF8D8A2DAF8001041F48071CAF886
:100FC0000010FFF7E7FC814610E0D5F88800A16E1D
:100FD00020F040700843C5F88800D8E7FFF7DAFC36
:100FE000A0EB0900022801D9032705E0DAF8000088
:100FF000C005F3D5002F7CD04FEA0706B8F1000FEB
:1010000003D0A86D20F08050A8652078C00707D0D5
:10101000D5F88800A16B20F003000843C5F88800CC
:101020002078800707D5D5F88800E16B20F00C0008
:101030000843C5F888002078400707D5D5F8880010
:10104000216C20F030000843C5F8880020780007A4
:1010500007D5D5F88800616C20F0C0000843C5F8BA
:1010600088002078C00607D5D5F88800A16C20F448
:1010700040700843C5F888002078800607D5D5F869
:101080008800E16C20F440600843C5F8880020889F
:10109000800507D5D5F88800E16D20F4402008438D
:1010A000C5F888002088400507D5D5F88800216E4E
:1010B00020F440100843C5F888002078400607D582
:1010C000D5F88800216D20F440500843C5F8880009
:1010D0002078000607D5D5F88800616D20F44040DF
:1010E0000843C5F888002088C00509D5D5F88800D0
:1010F00000E01CE0A16D20F440300843C5F88800F2
:1011000020884FF0006780044FF080684FD5D5F8F5
:101110008800E16E20F040600843C5F88800E06E6A
:10112000B8423CD1E86840F48010E8603FE0D5F870
:10113000900010F4407015D0D4F88410814211D082
:10114000D5F89000D5F8901020F4407041F480312B
:10115000C5F89010D5F8901021F48031C5F89010A2
:10116000C5F89000C00710D0FFF714FC074641F205
:10117000883906E0FFF70EFCC11B494501D903265B
:101180003CE7D5F890008007F4D5D5F89000D4F866
:10119000841020F440700843C5F890002EE74045C5
:1011A00005D10121201D00F09BFD00B106462068FD
:1011B000000317D5D5F88800216F20F04060084360
:1011C000C5F88800206FB84204D1E86840F4801068
:1011D000E86007E0404505D10121201D00F080FDB9
:1011E00000B106462068400317D5D5F88800616F26
:1011F00020F040600843C5F88800606FB84204D111
:10120000E86840F48010E86007E0404505D101211E
:10121000201D00F065FD00B10646208840041AD567
:10122000D5F88800A16F20F040500843C5F8880029
:10123000A06FB0F1805F03D0B0F1005F05D00AE08D
:101240000221201D00F04CFD03E00221584600F071
:10125000DDFD00B106462088000407D5D5F88800DA
:10126000E16F20F080400843C5F888002068C00383
:1012700007D555F8880FD4F8801020F000400843B7
:101280002860304600F004B80010024000700040B2
:1012900018BCBDE8E08F00002DE9F0470F460500BF
:1012A00058D03E4E306800F00700B84209D230688E
:1012B00020F0070038433060306800F00700B84283
:1012C00048D12878364CC0072CD06868032811D044
:1012D000022812D0216898B1490500293ADAA1689C
:1012E00021F003010143A160FFF754FB804641F266
:1012F000883910E021688901EFE721688903ECE76C
:101300008907EAE7FFF746FBA0EB0801494502D948
:101310000320BDE8F087A068696800F00C00B0EB1E
:10132000810FEFD12878800705D5A068A96820F043
:10133000F0000843A060306800F00700B8420BD905
:10134000306820F0070038433060306800F0070054
:10135000B84201D00120DCE72878400705D5A06815
:10136000E96820F4E0600843A0602878000706D50B
:10137000A068296920F4605040EAC100A06000F034
:101380003BF8A168074AC1F30311515CC840064904
:1013900008600020FFF718FB0020BAE70020024099
:1013A0000010024094540008040000200148006826
:1013B000704700000400002004480549006889685F
:1013C000044AC1F30221515CC84070470400002068
:1013D00000100240D4540008044805490068896898
:1013E000044AC1F3C221515CC84070470400002088
:1013F00000100240D454000830B52D49002318468F
:101400008A682C4C12F00C0F4FEA640514D08A68DD
:10141000C2F38102032A04D1CA6802F00302012A3E
:101420000AD08A68C2F38102012A19D08A68C2F3FD
:101430008102022A16D016E00A68120704D4D1F8F5
:101440009420C2F3032202E00A68C2F303121A4B8B
:1014500053F822308A6812F00C0F04D1184602E0CB
:10146000204600E028468A68C2F38102032A1DD183
:10147000C868CA6800F00300C2F30212521C0228B6
:1014800004D0032805D0B3FBF2F004E0B4FBF2F083
:1014900001E0B5FBF2F0CA68C968C2F30622504306
:1014A000C1F34161491C4900B0FBF1F030BD0000BF
:1014B000001002400024F400A45400082DE9F84371
:1014C00004007DD02078FF4DC0065DD5A86810F0DF
:1014D0000C0F0AD0A0690028286873D040F00100E2
:1014E0002860FFF757FA064655E02868800702D5BE
:1014F000A0690028E5D0216A2868000703D528687C
:1015000000F0F00004E0D5F89400F02202EA101098
:10151000814216D9084600F0FDFC002850D1286809
:1015200040F0080028602868216A20F0F000084395
:1015300028606868E16920F47F4040EA0120686023
:1015400015E0286840F0080028602868216A20F02B
:10155000F000084328606868E16920F47F4040EAB1
:1015600001206860206A00F0D5FC0028D6D1FFF782
:1015700043FFA968D44AC1F30311515CC840D34961
:1015800008600020FFF720FA2CE000BFFFF702FA06
:10159000801B02287ED828688007F7D5286840F08D
:1015A000080028602868216A20F0F00008432860BD
:1015B0006868E16920F47F4040EA0120686011E03A
:1015C000B2E0FFE720F001002860FFF7E3F90646EC
:1015D00005E000BFFFF7DEF9801B0228DAD8286893
:1015E0008007F7D42078C00748D0A868C0F38100EE
:1015F00002281DD0A868C0F38100032803D1E86841
:10160000C043800714D06068B0F5803F17D0B0F5B4
:10161000A02F286817D020F480302860286820F494
:10162000802028606068E0B1FFF7B4F9064614E056
:101630002868800322D56068002875D01EE02868DD
:1016400040F48030EDE740F480202860F7E700BFE9
:10165000FFF7A0F9801B64289CD828688003F7D581
:101660000CE0FFF797F9064605E000BFFFF792F997
:10167000801B64288ED828688003F7D420788007E0
:1016800042D5A868C0F38100012816D0A868C0F32D
:10169000810000E0A9E0032804D1E86800F003001D
:1016A00002280AD0E068002828681DD040F4807025
:1016B0002860FFF76FF906460BE0286840050BD558
:1016C000E0680028B9D007E0FFF764F9801B022822
:1016D00084D828684005F7D56868217C20F0F85048
:1016E00040EA016068600FE020F480702860FFF736
:1016F00051F9064605E000BFFFF74CF9801B0228B0
:1017000073D828684005F7D42078000729D5606988
:101710000028D5F8940013D040F00100C5F89400DB
:10172000FFF738F9064606E0FBE000BFFFF732F9A5
:10173000801B022859D8D5F894008007F6D510E010
:1017400020F00100C5F89400FFF724F9064604E0F4
:10175000FFF720F9801B022847D8D5F894008007AE
:10176000F6D42078400763D5A86D0026C00008D4C1
:10177000A86D40F08050A865A86D012600F080504B
:10178000009053480168C90511D40168804641F4AE
:1017900080710160FFF7FEF8074604E0FFF7FAF8F2
:1017A000C01B022821D8D8F80000C005F6D5A068D3
:1017B000012815D00528D5F8900017D020F0010099
:1017C000C5F89000D5F8900020F00400C5F890000E
:1017D000A06841F28838C8B1FFF7DCF8074610E08E
:1017E000D5F8900040F00100F0E777E040F0040009
:1017F000C5F89000F4E700BFFFF7CCF8C11B4145E6
:101800006CD8D5F890008007F6D50CE0FFF7C2F849
:10181000074604E0FFF7BEF8C11B414579D8D5F86B
:1018200090008007F6D41EB1A86D20F08050A86506
:10183000A06AE0B3A968C1F38101032972D002282C
:10184000286820F08070286011D02868000106D434
:101850002868800003D4E86820F00300E860E868A6
:101860001C490840E860FFF795F8044654E0FFF78C
:1018700091F8064605E000BFFFF78CF8801B0228B0
:1018800047D828688001F7D4206BE16A000110383E
:101890000843616BA26B0902120941EA4241084305
:1018A000A18F0D4A490802EB4151084300E036E0A0
:1018B00094F840104908120102EB41610843E860C6
:1018C00028680CE000100240945400080400002036
:1018D00000700040FFFFEEFE0000E0FF19E040F066
:1018E00080702860E86840F08070E860FFF752F888
:1018F000044604E0FFF74EF8001B022809D82868C8
:101900008001F7D50BE000BFFFF744F8001B022869
:1019100002D90320BDE8F88328688001F4D40020B0
:10192000F8E7FFE70120F5E74FF0E0210428086918
:1019300003D020F004000861704740F00400FAE78B
:10194000704710B5401EB0F1807F01D3012010BD5B
:101950004FF0E02460610F21601700F0DDF80020F7
:10196000A06107202061002010BD10B5FFF7E8FF3F
:1019700010BD10B5040003D094F8710010B107E059
:10198000012010BD002084F87000204600F026F8E9
:10199000242084F871002068016821F001010160B1
:1019A000204600F0F3FB0128EBD0606A10B120461E
:1019B00000F05AFB2068416821F4904141602068A2
:1019C000816821F02A0181602068016841F00101ED
:1019D00001602046BDE8104000F0AABB00B50068D9
:1019E0000F4987B0884218D10E48016E41F48041FA
:1019F0000166006E694600F4804005904FF4C060B7
:101A00000090022001900020029003200390072004
:101A100004904FF09040FEF7D3FE07B000BD0000E9
:101A200000380140001002402DE9F843044690F8C8
:101A300071001F4616460D4620284BD1C5B1BEB1D8
:101A400094F87000012845D0012084F870004FF010
:101A50000008C4F87480212084F87100FEF79AFF12
:101A6000A4F850608146A4F852604FF4805615E007
:101A70000120BDE8F8838021204600F0D7FCD8B9CA
:101A8000A068B04201D12069C0B115F8010B2168EE
:101A90000885B4F85200401EA4F85200B4F8520071
:101AA0004B464FF0000200970028E4D14FF0400170
:101AB000204600F0BBFC30B10320DAE735F8020B1A
:101AC000C0F30800E3E7202084F8710084F87080F8
:101AD0000020CEE70220CCE7FEE700000C4810B55E
:101AE0000A4901604FF4E1314160002181600C221C
:101AF000C160C0E904128161C16101624162FFF706
:101B000038FF002800D0FEE710BD0000003801407B
:101B100068000020FEE770470907090E002806DA72
:101B200000F00F0000F1E02080F8141D704700F174
:101B3000E02080F8001470477047F0B54B6A4FF012
:101B400040652BB1AA4203D08B6A04685B1E2361F7
:101B50008C690B6A002C57D05BB304688B68E36117
:101B6000CC69B4B1D1E90B3633434F6A4E6B3E4377
:101B700033438E8A43EA86430E6933430E6A334306
:101B8000CE68334323438C6924E00068496881614F
:101B9000F0BDD1E90B3423434D6A4C6B2C432343F6
:101BA0008C8A43EA84430C6923430C6A23438C697F
:101BB00023E0CE69BEB1D1E90B373B43D1F824C055
:101BC0004F6B47EA0C073B438F8A43EA8743CF6852
:101BD0003B43334323430C6823430468134363614B
:101BE000AA42D2D1F0BDD1E90B352B434E6A4D6BE1
:101BF00035432B438D8A43EA8543096823430068B4
:101C00000B4313434361F0BD3BB304688B68E3614E
:101C1000CC6994B1D1E90B3633434F6A4E6B3E43E6
:101C200033438E8A43EA86430E6933430E6A334355
:101C3000CE68334323438C69CEE7D1E90B34234389
:101C40004D6A4C6B2C4323438C8A43EA84430C69D2
:101C500023430C6A89692343D1E7CC6964B1D1E994
:101C60000B3633434F6A4E6B3E4333438E8A43EA0F
:101C70008643CE683343AFE74B6A002BC3D0D1E92C
:101C80000B452C434D6B898A1D432C43006844EA65
:101C9000814111434161F0BD2DE9F041984616465E
:101CA0000F460446069D08E0681C06D0FEF772FE4B
:101CB000A0EB0800A8420AD84DB1206880683840DF
:101CC00000D00120B042EFD10020BDE8F081042017
:101CD00084F83900E06B40F00100E0630120F4E794
:101CE0002DE9F041444C05468846E068002681070E
:101CF00028680DD0E16801F00301814216D1A8B136
:101D0000E0686968C0F30210401C88420ED120E0F0
:101D1000012804D0022805D0032807D108E0216853
:101D2000890701E021684905002907DB01265FE0FA
:101D30002168890302D421684903F5E7E1686A68EC
:101D40006FF00F0321F0730103EB02121143014303
:101D5000E160206820F080602060FEF71BFE0746EF
:101D600005E000BFFEF716FEC01B022837D820682A
:101D70000001F7D4B8F1000F18D0B8F1010F1ED050
:101D8000287D4FF07E41400801EB4060A96840EAA1
:101D900001202169194A114008432061206840F060
:101DA00080602060FEF7F6FD07461AE0A868E96843
:101DB0000002090940EA41402169114AEBE7288AFB
:101DC0001049400801EB4050A96840EA0120216910
:101DD0000D4AE0E7FEF7DEFDC01B022801D903260D
:101DE00006E020680001F5D52069A9690843206153
:101DF0003046BDE8F081000000100240FF80FFF98E
:101E0000FF80FDFF0000E0FFFF809FFF2DE9F04114
:101E10003D4C06468846E0680025810730680DD0B5
:101E2000E16801F00301814216D1A8B1E068716850
:101E3000C0F30210401C88420ED120E0012804D0DB
:101E4000022805D0032807D108E02168890701E0AE
:101E500021684905002907DB012551E02168890334
:101E600002D421684903F5E7E16872686FF00F0357
:101E700021F0730103EB021211430143E16020687A
:101E800020F080502060FEF785FD074605E000BF8A
:101E9000FEF780FDC01B022829D820688000F7D4F7
:101EA000B8F1000F15D0307C4FF07E41400801EBB7
:101EB0004060B16840EA01206169144A114008435A
:101EC0006061206840F080502060FEF763FD0746A7
:101ED0000FE0B068F1680002090940EA4140616919
:101EE0000B4AEBE7FEF756FDC01B022801D903257C
:101EF00006E020688000F5D560697169084360617B
:101F00002846BDE8F081000000100240FF80FFF984
:101F1000FF80FDFFF8B51C4D06460024A86DC000EB
:101F200002D5FEF709FE0DE0A86D40F08050A865CF
:101F3000A86D00F080500090FEF7FEFDA96D21F025
:101F40008051A965B0F5007F04D0802E07D94FF0ED
:101F500003040AE0802E08D9A02E01D804E001D1A4
:101F6000022402E0702E00D101240848016821F00B
:101F7000070121430160006800F00700A04201D082
:101F80000120F8BD0020F8BD0010024000200240F2
:101F9000704710B5FEF704FDBDE81040FFF7E5BC43
:101FA00030B5B9B001252804CDE922500220032420
:101FB0001421CDE92E51CDE92C040721CDE93010B3
:101FC000329022A8FFF77AFA00B1FEE70F20CDE9A0
:101FD0003304002435943694042133A83794FFF752
:101FE0005BF900B1FEE7684600950E94FEF77CFFB2
:101FF00000B1FEE74FF40070FEF76CFD00B1FEE7A4
:10200000FFF7D4F94FF47A71B0FBF1F0FFF799FCC8
:102010000420FFF789FC00221146501EFEF728FD20
:1020200039B030BD0D48016841F4700101600C48C1
:10203000016841F001010160002181600268094BE3
:102040001A4002608214C260026822F48022026098
:1020500081610249C00380390860704788ED00E063
:1020600000100240FFFFF6EA90F82410C90706D0DE
:1020700001684A68836A22F400321A434A6090F881
:102080002410890706D501684A68C36A22F48032A1
:102090001A434A6090F82410490706D501684A6837
:1020A000036B22F480221A434A6090F82410090737
:1020B00006D501684A68436B22F400421A434A601D
:1020C00090F82410C90606D501688A68836B22F44B
:1020D00080521A438A6090F82410890606D5016858
:1020E0008A68C36B22F400521A438A6090F8241065
:1020F000490611D501684A68036C22F480121A431C
:102100004A60016CB1F5801F06D101684A68436CD2
:1021100022F4C0021A434A6090F82410090606D53A
:1021200001684A68806C22F4002202434A607047CA
:10213000F8B5002604464667FEF72CFC05462068E5
:1021400000686FF07E47000708D52B4600224FF449
:1021500000112046009700F069F960B92068006816
:1021600040070AD52B4600224FF4800120460097F5
:1021700000F05CF908B10320F8BD202084F871005C
:1021800084F8720084F870600020F8BD2DE9F041F9
:102190000446016880682369E6691843636910256D
:1021A000002733431843954A0B68954E3340034349
:1021B0000B6020684168E36821F440511943416095
:1021C0002168A069914201D0236A18438B6823F4E7
:1021D000306303438B608B4B21688B4899420DD150
:1021E000D0F8880010F0030006D001285AD0022849
:1021F00056D0032859D157E0012556E0834B994228
:102200000BD1D0F8880010F00C0047D0042849D03A
:10221000082845D00C2848D146E07D4B99420BD187
:10222000D0F8880010F0300038D010283AD020289C
:1022300036D0302839D137E0764B99420BD1D0F8DF
:10224000880010F0C00029D040282BD0802827D04B
:10225000C0282AD128E0704B99420ED1D0F88800CE
:1022600010F440701AD0B0F5807F1BD0B0F5007F1D
:1022700016D0B0F5407F18D116E0914215D1D0F8B4
:10228000880010F4406009D0B0F5806F0AD0B0F536
:10229000006F05D0B0F5406F07D105E0002504E0E0
:1022A000022502E0042500E008255C4B00264FF4DF
:1022B000004091423DD135B1022D07D0042D07D009
:1022C000082D10D107E0FFF777F803E0184602E089
:1022D000FFF792F8A8B3626802EB4201814202D88C
:1022E000B0EB023F01D9012775E0DFF834815DB121
:1022F000022D0CD0042D13D0082DF4D1500829053F
:10230000401846F1000105E0FFF756F80AE05008D2
:102310004449F5E70023FDF753FFA0F5407156E06F
:10232000FFF76AF86268010E03025008181871413D
:10233000F0E7E1694FF6EF7881422FD1092DD2D233
:1023400000E048E0DFE805F0060920052305050563
:102350002600C8E7FFF730F801E0FFF73DF841003D
:10236000D4F8040001EB5001B1FBF0F080B2A0F111
:1023700010014145B7D84FF6F0710140C0F342005B
:1023800001432068C16026E027496068EAE7FFF75B
:1023900033F8E4E74FF480316068E3E7092DA2D217
:1023A000DFE805F006091E052205050525009AE768
:1023B000FFF702F801E0FFF70FF80146606801EB54
:1023C000500100BFB1FBF0F080B2A0F11001414517
:1023D00089D82168C860266638466666BDE8F081FF
:1023E000606803EB5001EDE7FFF706F8E5E7616889
:1023F00000EB5100B0FBF1F0E6E700000080004088
:10240000F369FFEF00380140001002400044004033
:1024100000480040004C0040005000400024F40000
:10242000FFFC0F00000024F40048E8012DE9F04112
:10243000984617460E460446069D1DE0681C1BD0B4
:102440002DB1FEF7A7FAA0EB0800A84214D9206826
:10245000016821F4D07101602068816821F00101D8
:102460008160202084F8710084F87200002084F8D4
:1024700070000320BDE8F0812068C06936EA0000E2
:1024800004D00020B842D9D00020F3E70120F9E7BA
:10249000FEE700000FB4054B10B503A9044A0298EB
:1024A00000F0F4F810BC5DF814FB0000D12F000818
:1024B000180000207CB5044600201D461646002961
:1024C0000BD0491ECDE90041044B6A4629463046EF
:1024D00000F0DCF8009A002111707CBDC12D0008CD
:1024E00002E008C8121F08C1002AFAD170477047DD
:1024F000002001E001C1121F002AFBD1704700003B
:102500002DE9FF5F82B00021DDE90430020DDDF826
:1025100040B0034318D044F61050A2F2FF324243B9
:102520001514119801281FD0A5EB0B00401C5FEA81
:10253000000A4FF000064E4FDFF83891B046504683
:1025400015D5CAF1000413E0119801244AA301280B
:1025500001D16FEA0B010298119AC0E90031C0E97C
:10256000024206B000F08EB8CBF10000DFE704466F
:102570000021404A491842EB0450CDE9001012E016
:10258000E00707D032463B4640464946FDF764FF28
:102590008046894632463B4610461946FDF75CFFA9
:1025A00006460F466410002CEAD1DDE90401DDE99E
:1025B0000023BAF1000F06DAFDF74EFF42464B4604
:1025C000FDF74AFF05E0FDF7BCFF42464B46FDF72D
:1025D000B8FF04460E460022284BFEF739F803D810
:1025E0004FF0FF30014607E00022254B20463146E0
:1025F000FDF783FEFEF714F8102409E0002C0ADB37
:102600000A220023FDF7DCFD039B30321A55641EBD
:1026100050EA0102F2D1641C039AC4F1110314447C
:10262000119A012A03D0012208430DD10AE0084380
:1026300004D000204FF0110B119072E7A3EB0B05B3
:102640006D1E0DE05B4504DD4FF0000205F1010554
:1026500004E003DA4FF00002A5F10105002AECD0F6
:1026600002981199C0E90231C0E9004579E70000FC
:10267000000014400000F03F300000000000F04374
:102680000000E03F30BCBDE8C09F00002DE9FF4FD7
:1026900095B09B468946064600250FE2252877D14E
:1026A00000242746F84A0121059400E0044316F867
:1026B000013F203B01FA03F01042F7D130782A287D
:1026C00011D06FF02F033078A0F13002092A16D80C
:1026D000059A44F0020402EB820203EB420210442A
:1026E000761C0590EFE759F8042B0592002A03DACF
:1026F000504244F40054059044F00204761C3078B3
:102700002E2816D116F8010F44F004042A280DD003
:102710006FF02F023078A0F13003092B09D807EBB6
:10272000870302EB4303C718761CF3E759F8047BD1
:10273000761C30786C280FD006DC4C2817D068281F
:102740000DD06A2814D104E0742810D07A280FD153
:102750000DE044F400140AE044F4801401E044F471
:1027600040147278824202D104F58014761C761CE3
:10277000307866280BD013DC582877D009DC002885
:1027800075D04528F6D04628F4D047281AD19DE1C7
:1027900018E0632835D0642879D0652812D195E1F6
:1027A000702873D008DC6728F1D069286FD06E28B4
:1027B0000DD06F2806D1B5E073282CD0752875D0C0
:1027C000782874D05A46179990476D1C75E1C4F368
:1027D0000250022809D003280DD0D9F8001004288F
:1027E0000DD00D6009F1040967E1D9F80010EA176E
:1027F000C1E90052F6E7D9F800100D80F2E70D703C
:10280000F0E719F8041B8DF8001000208DF8010086
:10281000EA46012003E059F804AB4FF0FF306107AE
:102820004FF0000102D40DE008F101018846B942E1
:102830000FDA8045F8DB1AF808100029F4D108E017
:1028400008F1010188468142FADB1AF808100029D4
:10285000F6D105985B46A0EB080721463846179A43
:1028600000F097FA284400EB080507E04DE029E165
:102870000DE01AF8010B5A4617999047B8F1010874
:10288000F7D25B4621463846179A13E142E00A2206
:102890000092C4F302524FF0000A022A08D059F8FD
:1028A00004CB032A4FEAEC710AD00DE029E02AE0BC
:1028B00009F1070121F00702F2E802C1914609E09F
:1028C0000FFA8CFC4FEAEC71042A03D14FFA8CFC0E
:1028D0004FEAEC71002907DA0A460021DCF1000C0E
:1028E00061EB02012D2202E0220504D52B228DF896
:1028F0000420012203E0E20701D02022F7E79046FE
:1029000059E00A2102E010220DE010214FF0000AE8
:1029100000910BE010224FF0000A44F00404082755
:10292000009203E008224FF0000A0092C4F3025222
:10293000022A05D059F804CB0021032A08D009E067
:1029400009F1070121F00702F2E802C1914605E012
:102950001FFA8CFC042A01D10CF0FF0C4FF0000888
:10296000220728D5702806D0009B83F0100353EA75
:102970000A0305D00EE040228DF80420012208E071
:102980005CEA010206D030228DF804208DF80500A3
:1029900002229046009B83F0080353EA0A030AD1FF
:1029A0005CEA010201D1620705D530228DF80420CE
:1029B0004FF001087F1E582804D034A003900EA8C1
:1029C00002900DE036A0F9E753466046009AFDF705
:1029D000F7FB84460398825C0298401E02900270C6
:1029E0005CEA0100F0D1029806A9081A00F1200A59
:1029F000600702D524F4803400E00127574502DD4A
:102A0000A7EB0A0000E0002000EB0A010090059807
:102A10004144401A0590E00306D45B462146179ACC
:102A2000059800F0B6F90544002706E001A85A46CB
:102A3000C05D179990476D1C7F1C4745F6DBE0038E
:102A40000CD55B462146179A059800F0A2F905447B
:102A500004E030205A46179990476D1C0099481E93
:102A600000900029F5DC08E0029802995A460078A7
:102A7000491C0291179990476D1CBAF10001AAF107
:102A8000010AF1DC65E10000092801003031323330
:102A9000343536373839616263646566000000009A
:102AA0003031323334353637383941424344454684
:102AB0000000000000F05BF90544761C3078002827
:102AC0007FF4ECAD19B0284600F04EB9620700D48F
:102AD000062709F1070222F0070CFCE80223E14671
:102AE00003F000485FEA080C02D00FF2702C0DE0F2
:102AF0005FEA045C02D50FF2682C07E05FEAC47C51
:102B000002D00FF2602C01E0AFF2700C4FF0FF38F2
:102B100023F00043CDF850C065280CD006DC4528D2
:102B200009D046281DD047283DD13DE0662818D061
:102B300067287ED138E00021112F01DB112000E051
:102B4000781CCDE9000106A90EA8FFF7D9FCDDE944
:102B50000F010E9A03910021009207F1010A0491DE
:102B60004DE04FF000400097CDE9011006A90EA8F6
:102B7000FFF7C6FCDDE90F0203920E9B11990022BC
:102B8000DDF80CA00093049211B9791C00EB010A46
:102B9000B7EB0A0004D4C0F1FF3007F1010A04903A
:102BA000AAEB0700019044E0012F00DA0127002181
:102BB000112F01DD112000E03846CDE9000106A902
:102BC0000EA8FFF79DFCDDE90F010E9A039100218D
:102BD00004910092BA4621070CD40399514500DABA
:102BE0008A46BAF1010F05DD009AAAF10101515C94
:102BF000302908D0B84202DA10F1040F06DA0121B8
:102C0000CDE9011015E0AAF10101E9E7002805DC92
:102C1000049901440491AAEB000102E0411C5145D2
:102C200000DD8A460499401A401C01904FF0004094
:102C30000290200704D40198504501DBCDF80480B0
:102C400000208DF84F0002980DF14F07B0F1004FB2
:102C500025D02B200E9002984FF0020800280CDAA5
:102C6000404202902D200E9007E00A210298FDF7C5
:102C70000FFB3031029007F8011DB8F10001A8F1F7
:102C80000108F2DC02980028EFD1791E0E98087036
:102C9000307800F0200040F0450007F8020D12A83F
:102CA000C01B00F107081498007800B1012000EB68
:102CB0000A01019801EBE07105984144401A401E59
:102CC0000590E00306D45B462146179A059800F06C
:102CD00060F805441498007818B15A46179990473F
:102CE0006D1CE00324D55B462146179A059800F039
:102CF00050F805441CE00498002807DBDDE90301D7
:102D0000884203DD0098405C179901E01799302054
:102D10005A469047049805F10105401C049001981B
:102D2000401E019004D12E205A46179990476D1CE1
:102D3000BAF10001AAF1010ADDDC05E017F8010B88
:102D40005A46179990476D1CB8F10001A8F1010887
:102D5000F4DC5B462146179A0598ABE62D0000008F
:102D60002B0000002000000030BCBDE8C08F2DE922
:102D7000F041044600251E461746880404D405E0A9
:102D800039462020B0476D1C641EF9D52846BDE8A1
:102D9000F0812DE9F041044600251E469046C80307
:102DA00001D5302700E02027880404D505E04146FE
:102DB0003846B0476D1C641EF9D52846BDE8F08141
:102DC0004A68002A06D00A68531C0B6010704868D5
:102DD000401E4860704700002DE9FE4F0E465FEA36
:102DE00000084E491D46174608F120094FF0010A18
:102DF0000ED098F83800002813D0D8F81000F11938
:102E0000814217D946A001F057FF052000F0DCB839
:102E100000914DA34EA240F2B52155A001F028FF2C
:102E2000FEE7009159A34AA240F2B62150A001F05A
:102E30001FFFFEE7D9F80C10484601B18847F0079C
:102E40000CD028463146012300906D1C761C1A4692
:102E5000404600F0EBFA040054D17F1E01214046A9
:102E600001F040FB04004DD1AD208DF804000DF1C0
:102E7000040B34E0BAF1000F13D05C46621C3146FB
:102E8000404600F04BFA98F8390008B1052200E0FE
:102E900004222878A054A118687848704FF0000ADE
:102EA00006E028788DF80500687801228DF8060084
:102EB000002000900023D9F80440484601A9921C44
:102EC000A047040003D035A001F0F6FE1AE040460A
:102ED00002F07CFA040015D1AD1CB61CBF1E022FF7
:102EE000C8D20021404601F0FDFA04000AD1012FAA
:102EF0000CD101231A4631464046009500F096FA5F
:102F0000040003D00021404601F0ECFAD9F810107B
:102F1000484601B18847204678E700007856000807
:102F20004572726F723A20466C6173682061646406
:102F300072657373206973206F7574206F662062E9
:102F40006F756E642E000000666C6173680000008F
:102F5000282573292068617320617373657274205A
:102F60006661696C65642061742025732E00000021
:102F70002E2E5C2E2E5C2E2E5C736675645C737236
:102F8000635C736675642E6300000000666C617399
:102F9000682D3E696E69745F6F6B00004572726FD9
:102FA000723A20466C6173682077726974652053A9
:102FB000504920636F6D6D756E696361746520653E
:102FC00072726F722E0000001EBCBDE8E08F000020
:102FD00013B54FF6FF73012269460248FEF724FD40
:102FE00000981CBD6800002010B5002821D0114BAE
:102FF0000022001F196803E0814203D80A4649688D
:103000000029F9D152B11368841A9C4204D1006896
:1030100018441060104602E0506000E0186039B1BA
:1030200002680B1A934203D10B681A440260496884
:10303000416010BD1C00002038B54E4D040016D074
:1030400002F0ACF800286BD1032084F84900606AD4
:10305000A8B12069002500281AD0A08A002817D01E
:10306000A069002814D0207F002811D03EE042A3A0
:1030700043A2FA214AA0009501F0FAFDFEE74FA312
:103080003FA240F2051146A0009501F0F1FDFEE7D8
:10309000204600F079FF002842D1204601F092FF3F
:1030A000E0B1A560E06D2061B4F85400012831D092
:1030B0000120A082206EA06194F864002077012096
:1030C00004EBC002116E31B1A3698B4203D9A16137
:1030D00092F864102177401C0428F1D32069D8B1FC
:1030E000A08AC8B1A069B8B1207FA8B1214A002048
:1030F000217BCB3A02EBC0031B798B4211D152F8F2
:10310000301089B1A268002A2BD030A0236901F0C9
:10311000D3FD0DE00220CCE737A001F0CDFD01206A
:1031200038BD401C1028E5D341A0216901F0C4FD41
:10313000204601F0BDF80028F2D1217D490706D5CF
:1031400000220121204602F061F80028E8D121691F
:10315000B1F1807F0AD92046BDE83840012101F055
:1031600033B93DA0226901F0A7FDE1E784F83950A9
:1031700038BD00001F560008666C617368000000CF
:103180002825732920686173206173736572742028
:103190006661696C65642061742025732E000000EF
:1031A0002E2E5C2E2E5C2E2E5C736675645C737204
:1031B000635C736675642E6300000000666C617367
:1031C000682D3E7370692E777200000046696E6448
:1031D000206120257320257320666C61736820634D
:1031E0006869702E2053697A6520697320256C64A4
:1031F0002062797465732E005761726E696E673A4A
:10320000205468697320666C617368206465766910
:103210006365206973206E6F7420666F756E64201D
:103220006F72206E6F7420737570706F72742E00E1
:1032300046696E64206120666C617368206368690A
:10324000702E2053697A6520697320256C64206292
:10325000797465732E00000046696E642061202534
:103260007320666C61736820636869702E205369EF
:103270007A6520697320256C642062797465732EE9
:103280000000000008B5FDF793FBFEF789FE1D481E
:10329000C16C41F08001C164C16C01F080010091FA
:1032A000C16C41F01001C164C16C01F010010091CA
:1032B000C16C41F00101C164C06C00F001000090DC
:1032C000FEF70CFC11481049016001214160042106
:1032D00081601021C160122101614FF44071416190
:1032E00000218161FDF7BAFC00B1FEE708A001F002
:1032F00059FC30B9054A4FF48061BC32002001F01E
:10330000F3F9FEE700100240001000A024000020A6
:1033100057323551313238420000000038B5144B75
:1033200030B172B190F83900002813D0042312E0B4
:10333000009310A311A24FF4777118A001F098FC2C
:10334000FEE700931CA30DA240F2DD3113A001F0B3
:103350008FFCFEE7032300201C1AE400083C21FA3E
:1033600004F41454401CC0B29842F5D338BD000098
:10337000D5560008666C6173680000002825732923
:103380002068617320617373657274206661696C73
:1033900065642061742025732E0000002E2E5C2EA3
:1033A0002E5C2E2E5C736675645C7372635C736650
:1033B00075642E6300000000617272617900000084
:1033C000F0B50B30154D20F007010024144A0FE032
:1033D00003688B420BD38B4205D95E1A43184768AA
:1033E000C3E9006700E04368136002C004E0021D07
:1033F00010680028ECD12046002802D1286808B1C6
:103400000020F0BD064A07481060074A121A22F051
:103410000702C0E9002401202860D7E7200000202F
:103420001C000020E4050020E00700202DE9F04FFB
:1034300006004F48C3B01C46154689464FF00008A9
:1034400006F120070DD0012C14D0B4F5807F11D0E7
:10345000009048A351A24FF4187158A001F008FC45
:10346000FEE700905CA34DA240F25E2153A001F064
:10347000FFFBFEE796F8381059B1316909EB0500FA
:1034800088420FD956A001F017FC052043B000F088
:10349000D9B800905CA341A240F2622147A001F09C
:1034A000E7FBFEE7F9680DF1040B002954D038461C
:1034B000884751E00121304601F014F85FEA000826
:1034C0004CD102208DF804000BF101024946304630
:1034D000FFF724FF96F8390008B1052000E004202A
:1034E000B9FBF4F1804604FB119068B1B9FBF4F12B
:1034F00004FB1190201AA8420AD2B9FBF4F104FB94
:103500001190A4EB000A04E0A54201D9A24600E014
:10351000AA46A5EB0A05D1440BEB080052464C998C
:10352000FCF782FE002000900346D7F804C008EBA9
:103530000A0201A93846E0475FEA000803D036A036
:1035400001F0BAFB0AE0304601F040FF5FEA0008F4
:1035500004D14C9850444C90002DABD10021304602
:1035600000F0C0FF396909B13846884740468DE709
:103570006056000877726974655F6772616E203DFE
:103580003D2031207C7C2077726974655F677261B1
:103590006E203D3D2032353600000000282573297D
:1035A0002068617320617373657274206661696C51
:1035B00065642061742025732E0000002E2E5C2E81
:1035C0002E5C2E2E5C736675645C7372635C73662E
:1035D00075642E6300000000666C61736800000073
:1035E0004572726F723A20466C6173682061646440
:1035F00072657373206973206F7574206F66206223
:103600006F756E642E000000666C6173682D3E69F4
:103610006E69745F6F6B00004572726F723A20467C
:103620006C61736820777269746520535049206318
:103630006F6D6D756E6963617465206572726F720E
:103640002E00000030BCBDE8C08F000030B589B04E
:1036500010788DF8000050781D468DF8010001911A
:103660000C9B90788DF80800D07800248DF81040DD
:103670008DF8090003948DF8114050790793CDE936
:10368000050590798DF82000684600F083F80798CA
:1036900078B141F2883229460748FDF75DFB40B119
:1036A000054CE16B05A001F007FB012084F839000F
:1036B000032409B0204630BD2400002071737069D6
:1036C00020726563762064617461206661696C654F
:1036D000642825642921000070B58AB0027801248D
:1036E00000258DF800208DF8014023462A46012947
:1036F00013D904290ED3437886781B0443EA0623A2
:10370000C6783343019318238DF808308DF80940AB
:10371000042307E002200AB070BD8DF80920019251
:103720008DF808208DF8102003928DF81120059255
:10373000994202D08DF8204001E08DF820201844F5
:103740000690C81A0790684600F024F8079870B1F0
:1037500041F2883207480699FDF764FB38B1054D00
:10376000E96B05A001F0A8FA85F839400225284642
:10377000D1E7000024000020717370692073656E2A
:10378000642064617461206661696C6564282564E5
:103790002921000000B58FB00178009141680191A6
:1037A000416905914278002132B1012A06D0022AEE
:1037B00007D0042A08D00AE0069108E04FF480728E
:1037C00004E04FF4007201E04FF440720692427A36
:1037D00032B1012A06D0022A07D0042A08D00AE012
:1037E000079108E04FF4806204E04FF4006201E0CA
:1037F0004FF440620792027A182A0CD04FF44052DC
:10380000039290F820204AB1012A09D0022A0AD056
:10381000042A0BD00DE04FF40052F1E7099108E0C3
:103820004FF0807204E04FF0007201E04FF0407200
:1038300009920D9108910B910C91C0690A9041F287
:10384000883269460248FDF7C2F90FB000BD00009A
:1038500024000020F0B589B0174602780125002623
:103860008DF800208DF801502A463446012914D9DC
:1038700004290FD3427890F802C01204C07842EABB
:103880000C220243182001928DF8080004228DF8C2
:10389000095007E0032009B0F0BD8DF809400194FC
:1038A0008DF808408DF8104003948DF811408A423D
:1038B00003D0881AC000059000E00594CDE9067396
:1038C0008DF820506846FFF765FF079870B141F208
:1038D000883239460648FDF73FFA38B1044CE16BAF
:1038E00004A001F0E9F984F8395003263046D2E704
:1038F0002400002071737069207265637620646112
:103900007461206661696C65642825642921000062
:1039100070B50669DDE90454B6F1807F03D880F8FC
:103920004910182103E0491C80F84910202180F833
:103930004B1000F84A2F00218370C170057144714B
:1039400070BD000030B50C4687B0082100220492FB
:103950000592244A58B1002C11D0082304AA00F083
:1039600065FB002813D020A001F0A6F92BE00092FF
:103970002BA32DA2962134A001F07AF9FEE7009244
:1039800039A329A2972130A001F072F9FEE79DF832
:10399000103023709DF8112062709DF81210A170F4
:1039A0009DF81300E070059D012925F07F456560B5
:1039B00003D9314801F080F905E0092806D2014613
:1039C0002E4801F079F9002007B030BD0091039531
:1039D000CDE901202A4AAD211BA001F049F90120BF
:1039E000F2E70000FC5400084572726F723A2043FF
:1039F000616E27742072656164204A454445432006
:103A0000626173696320666C6173682070617261C2
:103A10006D65746572206865616465722E000000D2
:103A2000666C617368000000282573292068617343
:103A300020617373657274206661696C65642061CE
:103A4000742025732E0000002E2E5C2E2E5C2E2E50
:103A50005C736675645C7372635C736675645F73D4
:103A60006664702E6300000062617369635F68655D
:103A70006164657200000000F45900087C5B000876
:103A8000205900082DE9F0418EB00E46054600F1A0
:103A900050044F68242104A8FCF7DFFB8B485DB17C
:103AA000002E11D0242304AA3946284600F0BEFA7D
:103AB000002811D086A0B1E0009093A394A2C22167
:103AC0009BA001F0D5F8FEE70090A1A390A2C3212E
:103AD00097A001F0CDF8FEE7A1A2CB2194A001F0C0
:103AE000C7F8A9A2CC2192A001F0C2F8002504AE2B
:103AF00006EB850016F8252041788378C078CDE95B
:103B00000003CDE90212B0466B1CA6A2CE2188A00C
:103B100001F0AEF86D1CEDB2092DE9D39DF811301E
:103B2000E3719DF81000002600F003000125012834
:103B300003D0032808D0A4A070E0A571B04AD72113
:103B40007BA001F095F805E0A671AEA2DB2178A07C
:103B500001F08EF89DF81000C0F38000002831D0ED
:103B600038B14FF48070A080B3A2EA2170A001F0B8
:103B70007FF89DF81000C0F3C000002826D0A0B147
:103B80002672B84AFA216AA001F072F89DF8100076
:103B9000C0F3001000281DD038B10620B24A607270
:103BA0004FF4827162A001F063F89DF81200C0F337
:103BB0004100A0B1012818D00228A67234D0E672C4
:103BC000AAA02BE0A580B2A2E621CFE72572B8A279
:103BD000F521E7E750206072C14AFF21E2E7A572B4
:103BE000E672C0A240F20F1104E0A572E572C3A212
:103BF0004FF48A714EA001F03BF89DF81400DDF8F7
:103C0000151040EA01209DF81710C90911D0B9B16B
:103C100020F0004023280FD9BF48E66001F04CF89F
:103C200000200EB0BDE8F081E572BCA240F219118F
:103C3000E0E705EBD00002E0C01E05FA00F0E0600E
:103C4000BCA240F231113AA0E36801F011F800265D
:103C50004FEA060708EB4602117F89B105FA01F029
:103C600004EBC70301461861507F18758B0A00905A
:103C7000B6A240F237112EA000F0FAFF7F1CFFB26F
:103C8000761CF6B2042EE5D35FF0000004EBC00210
:103C90001169A1B1411C0FE004EBC1031F6957B1C9
:103CA0001669BE4207D992F814C017611F7D1775B7
:103CB0001E6183F814C0491CC9B20429ECD3401C0E
:103CC000C0B20428E2D325700120AAE70E550008EF
:103CD0005761726E696E673A2043616E2774207275
:103CE000656164204A4544454320626173696320ED
:103CF000666C61736820706172616D6574657220B5
:103D00007461626C652E0000666C6173680000006F
:103D1000282573292068617320617373657274208C
:103D20006661696C65642061742025732E00000053
:103D30002E2E5C2E2E5C2E2E5C736675645C737268
:103D4000635C736675645F736664702E6300000065
:103D500062617369635F6865616465720000000099
:103D60004A4544454320626173696320666C617310
:103D70006820706172616D65746572207461626C37
:103D80006520696E666F3A004D53422D4C534220B8
:103D900020332020202032202020203120202020ED
:103DA000300000005B253034645D203078253032EF
:103DB000582030782530325820307825303258203D
:103DC00030782530325800004572726F723A2055B3
:103DD0006E69666F726D2034204B4220657261738C
:103DE0006520737570706F7274656420696E666F9C
:103DF000726D6174696F6E206572726F722E000051
:103E0000DC580008556E69666F726D2034204B4295
:103E100020657261736520697320756E61766169D2
:103E20006C61626C6520666F7220746869732064CF
:103E300065766963652E0000577269746520677244
:103E4000616E756C617269747920697320363420F3
:103E50006279746573206F72206C61726765722E6F
:103E600000000000485A0008045B00084572726FA9
:103E7000723A2052656164206164647265737320D4
:103E80006279746573206572726F722100000000A0
:103E90005772697465206772616E756C61726974BE
:103EA00079206973203120627974652E000000004A
:103EB00054617267657420666C6173682073746105
:103EC00074757320726567697374657220697320F5
:103ED0006E6F6E2D766F6C6174696C652E000000DC
:103EE0008C5A0008332D42797465206F6E6C7920EE
:103EF00061646472657373696E672E00332D206F81
:103F00007220342D42797465206164647265737324
:103F1000696E672E00000000AC590008342D42790C
:103F20007465206F6E6C7920616464726573736967
:103F30006E672E0043617061636974792069732034
:103F4000256C642042797465732E0000466C6173A1
:103F5000682064657669636520737570706F72742C
:103F60007320256C644B4220626C6F636B2065721A
:103F70006173652E20436F6D6D616E6420697320DF
:103F80003078253032582E007FB5040004F120002F
:103F900011D09F218DF80C1003210091456802ABD0
:103FA000012203A9A847050011D012A000F084FE49
:103FB00004B0284670BD1B4B194803F1080200905D
:103FC00040F2513102F1200000F052FEFEE79DF870
:103FD000083023739DF8090060739DF80A10A173DF
:103FE000CDE900010F48104A40F25931283000F065
:103FF0003FFEDDE74572726F723A205265616420C0
:10400000666C61736820646576696365204A45441F
:104010004543204944206572726F722E00000000F3
:104020008256000860490008C45B00083EB520A520
:10403000D5E90045CDE901450C0C8DF805400C0A89
:104040008DF806401C4C8DF8071058B1B1F1807FF7
:1040500011D31AA31DA240F25B1124A0009400F01A
:1040600007FEFEE729A319A24FF4AD711FA000942B
:1040700000F0FEFDFEE742B1456A7DB100931346B4
:10408000052201A92030A8473EBD22A30FA24FF46C
:10409000AE7116A0009400F0EBFDFEE720A30BA28A
:1040A00040F25D1111A0009400F0E2FDFEE7000077
:1040B0005A000000FF0000001F5500086164647290
:1040C000203C20314C203C3C2032340028257329F0
:1040D0002068617320617373657274206661696C16
:1040E00065642061742025732E0000002E2E5C2E46
:1040F0002E5C2E2E5C736675645C7372635C7366F3
:1041000075645F736664702E63000000666C617393
:1041100068000000726561645F62756600000000FF
:10412000666C6173682D3E7370692E7772000000B3
:104130001FB5002100F150040291039148B1217094
:10414000082302AAFFF772FF60B11FA000F0B4FDC0
:104150002AE02548009025A326A26D212DA000F07D
:1041600087FDFEE79DF8080053280BD19DF8090054
:10417000462807D19DF80A00442803D19DF80B007A
:10418000502805D02B4A7A2122A000F071FD0BE0C7
:104190009DF80C00A0709DF80D106170012906D9E2
:1041A000A27825A000F088FD002004B010BD9DF885
:1041B0000E20A078CDE900020B462DA2832115A088
:1041C00000F056FD0120F0E74572726F723A20430D
:1041D000616E2774207265616420534644502068E4
:1041E00065616465722E0000EB540008666C6173B3
:1041F00068000000282573292068617320617373AB
:10420000657274206661696C656420617420257331
:104210002E0000002E2E5C2E2E5C2E2E5C736675FA
:10422000645C7372635C736675645F736664702E3E
:1042300063000000345800084572726F723A2054CF
:1042400068697320726576657273696F6E2856258A
:10425000642E2564292053464450206973206E6FD4
:104260007420737570706F727465642E00000000A6
:10427000436865636B2053464450206865616465FC
:1042800072206973204F4B2E20546865207265762A
:10429000657273696F6E206973205625642E2564DC
:1042A0002C204E504E2069732025642E0000000003
:1042B0002DE9FC41050005F1200412D066200027FD
:1042C0008DF80400009766683B46012201A920464C
:1042D000B04706000FD018A000F0EEFC3046BDE855
:1042E000FC811E4800901EA31FA240F2313126A07F
:1042F00000F0BEFCFEE7284601F068F899208DF832
:10430000050000970023666801220DF10501204693
:10431000B047040004D1284601F058F8040004D046
:1043200005A000F0C9FC2046D9E71EA24FF4517148
:1043300015A000F09DFCF6E74572726F723A2046B8
:104340006C61736820646576696365207265736566
:1043500074206661696C65642E0000004C5500088D
:10436000666C6173680000002825732920686173FA
:1043700020617373657274206661696C6564206185
:10438000742025732E0000002E2E5C2E2E5C2E2E07
:104390005C736675645C7372635C736675642E63CC
:1043A00000000000466C617368206465766963658F
:1043B00020726573657420737563636573732E0073
:1043C0007820401EFDD270477CB50C46050007D012
:1043D000012100F087F800282FD15CB1B7200AE056
:1043E0001648009016A318A240F297311EA000F0C4
:1043F0003FFCFEE7E9208DF8040000200090034612
:104400006E6A012201A905F12000B047060002D022
:1044100074B11CA10DE085F839400CB119A300E07E
:104420001AA31CA240F2A9310FA000F021FC03E066
:1044300016A121A000F040FC30467CBDA256000829
:10444000666C617368000000282573292068617319
:1044500020617373657274206661696C65642061A4
:10446000742025732E0000002E2E5C2E2E5C2E2E26
:104470005C736675645C7372635C736675642E63EB
:1044800000000000456E7465720000004578697494
:1044900000000000257320342D427974652061648A
:1044A0006472657373696E67206D6F6465207375E0
:1044B00063636573732E00004572726F723A202534
:1044C0007320342D4279746520616464726573735E
:1044D000696E67206D6F6465206661696C65642E26
:1044E00000000000FEB50D46040002D05DB10620BC
:1044F0000AE01448009014A315A240F26E311CA0EB
:1045000000F0B6FBFEE704208DF8040000200090C8
:104510000346666A012201A904F12000B047002881
:104520000FD102A9204600F095FD002809D1002DE9
:1045300007D09DF80810890703D414A000F0BCFB35
:104540000220FEBD90560008666C61736800000092
:104550002825732920686173206173736572742044
:104560006661696C65642061742025732E0000000B
:104570002E2E5C2E2E5C2E2E5C736675645C737220
:10458000635C736675642E63000000004572726F91
:10459000723A2043616E277420656E61626C6520FB
:1045A0007772697465207374617475732E000000EE
:1045B0007CB505002A4805F120040DD095F8381087
:1045C00099B1E16809B12046884701212846FFF7E3
:1045D00089FF060039D111E0009022A323A24FF4F5
:1045E000DF712AA000F044FBFEE700902EA31FA27B
:1045F0004FF4E07125A000F03BFBFEE7C7208DF8EB
:104600000400287D01074FF000000DD594218DF89E
:10461000051080218DF806109A218DF80710009062
:1046200000230422666803E00090002366680122EC
:1046300001A92046B047060003D01FA000F03CFBB4
:1046400003E0284600F0C2FE064600212846FFF798
:1046500049FF216909B12046884730467CBD0000EA
:1046600045560008666C61736800000028257329B0
:104670002068617320617373657274206661696C70
:1046800065642061742025732E0000002E2E5C2EA0
:104690002E5C2E2E5C736675645C7372635C73664D
:1046A00075642E6300000000666C6173682D3E69BE
:1046B0006E69745F6F6B00004572726F723A2046CC
:1046C0006C6173682063686970206572617365202E
:1046D00053504920636F6D6D756E69636174652019
:1046E0006572726F722E00002DE9F04781463848DE
:1046F00017460D460468002001E03854401CA842CB
:10470000FBD30A464946204600F04CF9216808B11F
:1047100030A057E02B464A463748FDF7BBFE3B46E4
:104720002A464946204600F05BFD216808B133A0C7
:1047300048E02B464A463A48FDF7ACFE3B462A463F
:104740004946204600F08CFB216820B135A0FDF7DA
:10475000A1FE002630E02B464A463B48FDF79AFE74
:104760003AA0FDF797FE0026A5F1010814E03007F6
:1047700004D109EB060145A0FDF78CFEB95D45A00B
:10478000FDF788FE3007B0F1704F01D0464502D1E9
:1047900042A0FDF77FFE761CAE42E8D33FA0FDF7B6
:1047A00079FED6E7B85DF1B2884204D03C48216872
:1047B000FDF770FE02E0761CAE42F3D3AE4205D1A7
:1047C000216838A0BDE8F047FDF764BEBDE8F0877A
:1047D00008000020457261736520746865202573A8
:1047E00020666C6173682064617461206661696C25
:1047F00065642E0D0A0000005C570008577269744A
:10480000652074686520257320666C617368206478
:10481000617461206661696C65642E0D0A00000098
:10482000A0570008526561642074686520257320D4
:10483000666C6173682064617461206661696C658F
:10484000642E0D0A00000000E45700084F666673EE
:104850006574202868292030302030312030322003
:10486000303320303420303520303620303720307F
:10487000382030392030412030422030432030442D
:104880002030452030460D0A000000005B253038FE
:10489000585D200025303258200000000D0A00002D
:1048A0001057000854686520257320666C61736892
:1048B0002074657374206973207375636365737303
:1048C0002E0D0A0038B50446FEF7B6FB050009D0E8
:1048D000002084F838000CA0D4F8001000F0ECF9A7
:1048E000284638BD2CB1012084F8380011A0216879
:1048F000F4E71A4800901AA31BA24FF4BC7122A03F
:1049000000F0B6F9FEE700004572726F723A20259A
:104910007320666C617368206465766963652069DD
:104920007320696E697469616C697A652066616972
:104930006C2E0000257320666C61736820646576B8
:1049400069636520697320696E697469616C697A4D
:104950006520737563636573732E00002D56000820
:10496000666C6173680000002825732920686173F4
:1049700020617373657274206661696C656420617F
:10498000742025732E0000002E2E5C2E2E5C2E2E01
:104990005C736675645C7372635C736675642E63C6
:1049A000000000002DE9FE4F0400514815468846DE
:1049B0004FF0000604F120070ED094F838100029BB
:1049C00013D0206908EB0501814217D949A000F0F6
:1049D00073F9052000F0E2B8009050A351A24FF403
:1049E000FD7158A000F044F9FEE700905CA34DA2D1
:1049F0004FF4FE7153A000F03BF9FEE7B8F1000F51
:104A000005D1A84203D12046FFF7D2FDE2E7F968BD
:104A1000002960D0384688475DE000BF94F8500018
:104A200050B12A464146204600F05EFB04EBC00030
:104A300090F864A0006E02E094F81CA0A069012127
:104A400081462046FFF74EFD060046D18DF804A0B2
:104A50000DF1050241462046FEF760FC94F839004E
:104A600008B1052200E004220020009003467E6881
:104A700001A93846B047060003D03DA000F01CF95C
:104A80002BE0204600F0A2FC060026D14946B8FBE8
:104A9000F1F209FB1280B8B1B8FBF1F209FB128107
:104AA000A9EB0100A84218D2B8FBF9F209FB128168
:104AB000B8FBF9F2A9EB010009FB12812D1AA9EB51
:104AC000010101EB080005E04D4506D9A5EB0905FC
:104AD00008EB09008046002DA0D100212046FFF7F9
:104AE00001FD396909B138468847304672E7000050
:104AF000555600084572726F723A20466C617368B1
:104B00002061646472657373206973206F7574200B
:104B10006F6620626F756E642E000000666C6173B4
:104B20006800000028257329206861732061737371
:104B3000657274206661696C6564206174202573F8
:104B40002E0000002E2E5C2E2E5C2E2E5C736675C1
:104B5000645C7372635C736675642E6300000000AE
:104B6000666C6173682D3E696E69745F6F6B0000DF
:104B70004572726F723A20466C617368206572618B
:104B800073652053504920636F6D6D756E69636165
:104B90007465206572726F722E0000001EBCBDE845
:104BA000E08F00002DE9F041074600268020FEF747
:104BB00007FC194C2060F0B18021FBF74EFB384612
:104BC000FBF756FB401CFEF7FBFB050013D03946F4
:104BD000FBF755FB20680560FFF774FE80B139468E
:104BE0000EA000F069F82068012608B1FEF7FCF974
:104BF0003046BDE8F08115A000F05EF80120F8E72E
:104C00000421206800F076F8206890F8491012A07E
:104C100000F052F8ECE70000080000204552524F27
:104C2000523A2053504920666C6173682070726F4D
:104C30006265206661696C65642062792053504921
:104C4000206465766963652025732E006C6F77207C
:104C50006D656D6F727900007265616420696E73B5
:104C60007472756374696F6E206973202558000033
:104C70000FB410B50A46014605AC08A0FDF70AFCC2
:104C800023464FF480710948049AFDF713FC074945
:104C900007A0FDF7FFFB10BC5DF814FB5B53465506
:104CA000445D2825733A256C64292000E004002027
:104CB00025730D0A000000000FB410B503AC08A066
:104CC000FDF7E8FB23464FF480710748029AFDF791
:104CD000F1FB054905A0FDF7DDFB10BC5DF814FBF9
:104CE0005B534655445D0000E004002025730D0A27
:104CF000000000002DE9FC4100220123374D14463D
:104D000000280DD0012913D0022911D004290FD079
:104D100033A342A2C92149A00095FFF7A9FFFEE7EE
:104D20004DA33EA2C82145A00095FFF7A1FFFEE7D5
:104D300080F84810294D077BB5F1300515F8226041
:104D4000BE420ED105EB820690F80DE096F801C048
:104D5000F44506D196F802C090F80EE0F44500D173
:104D6000F378521C0C2AE9D300220125012905D031
:104D70000826022908D004292CD117E0CDE9002506
:104D800001231A46032123E05F074FF0020105D5F6
:104D9000CDE9006102230122BB2119E09B07EDD57B
:104DA000CDE9006101231A463B2111E0DF064FF0F7
:104DB000040106D50622CDE9002104230122EB21BE
:104DC00006E01B07DAD5CDE9006101231A466B2105
:104DD000FEF79EFD2046BDE8FC8100000456000859
:104DE0006C696E65735F6E756D626572203D3D2006
:104DF00031207C7C206C696E65735F6E756D6265B9
:104E000072203D3D2032207C7C206C696E65735F92
:104E10006E756D626572203D3D2034002825732932
:104E20002068617320617373657274206661696CB8
:104E300065642061742025732E0000002E2E5C2EE8
:104E40002E5C2E2E5C736675645C7372635C736695
:104E500075642E6300000000666C617368000000DA
:104E60002DE9FE430400334899461746884604F16D
:104E7000200511D0B9F1000F17D094F8381000298F
:104E80001CD0216908EB0700884220D92AA0FFF72F
:104E900013FF052000F092B8009031A332A24FF426
:104EA000C67139A0FFF7E4FEFEE700903DA32EA2F5
:104EB00040F28D1134A0FFF7DBFEFEE700903BA32C
:104EC00029A240F28F1130A0FFF7D2FEFEE7E96879
:104ED00009B128468847204600F078FA060022D11A
:104EE00094F84900032808D00097AE684B4604F1B7
:104EF000490241462846B04714E003208DF80400DB
:104F00000DF1050241462046FEF708FA94F83900F3
:104F100008B1052200E0042200976C684B4601A905
:104F20002846A0470646296909B1284688473046E1
:104F3000B0E700003B5600084572726F723A204697
:104F40006C61736820616464726573732069732097
:104F50006F7574206F6620626F756E642E0000009E
:104F6000666C6173680000002825732920686173EE
:104F700020617373657274206661696C6564206179
:104F8000742025732E0000002E2E5C2E2E5C2E2EFB
:104F90005C736675645C7372635C736675642E63C0
:104FA000000000006461746100000000666C6173C1
:104FB000682D3E696E69745F6F6B000006BCBDE8CA
:104FC000F88300003EB504000CD0FFF7B1F890B1B3
:104FD00001A92046FEF7B6FC68B101A92046FEF7FC
:104FE00051FD3EBD0748009007A309A2512110A022
:104FF000FFF73EFEFEE716482168FFF75DFE002042
:105000003EBD0000DC540008666C6173680000005F
:105010002825732920686173206173736572742079
:105020006661696C65642061742025732E00000040
:105030002E2E5C2E2E5C2E2E5C736675645C737255
:10504000635C736675645F736664702E6300000052
:10505000805800081CB505228DF804200E4A40B186
:1050600081B1012200920B46446A01A92030A04779
:105070001CBD009209A30BA24FF46F7111A0FFF7A2
:10508000F7FDFEE7009216A306A240F2BD310DA087
:10509000FFF7EEFDFEE70000BA560008666C61738C
:1050A00068000000282573292068617320617373EC
:1050B000657274206661696C656420617420257373
:1050C0002E0000002E2E5C2E2E5C2E2E5C7366753C
:1050D000645C7372635C736675642E630000000029
:1050E0007374617475730000F8B5034690F850004E
:1050F000002438B1186EB1FBF0F500FB151058B163
:105100000020F8BD0E4800900EA314A24FF4B77112
:105110001AA0FFF7ADFDFEE75FF0030003EBC0054B
:105120002D6E35B1954204D8B1FBF5F605FB161589
:1051300015B110B1401EF1E704462046F8BD00004D
:105140002E550008666C6173682D3E736664702E80
:10515000617661696C61626C6500000028257329C5
:105160002068617320617373657274206661696C75
:1051700065642061742025732E0000002E2E5C2EA5
:105180002E5C2E2E5C736675645C7372635C736652
:1051900075645F736664702E6300000042680021CE
:1051A0006AB9084A4262084A8262084AC262084AE8
:1051B0000263084A4263084AC263084A0264084616
:1051C00070470000F15200084D360008E95200080F
:1051D000ED5200080C000020C1430008C027090060
:1051E000F8B504460020A58AEE0706D000934FF4D8
:1051F00080732046FEF71AF9F8BD6D07FCD501B0A3
:105200002046BDE8F040FDF7E7BD00002DE9FC4178
:10521000174600F1200460B10026A1B150208DF89E
:105220000400009600236568012201A92046A847D2
:105230000CE01148009011A312A24FF47D7119A047
:10524000FFF716FDFEE70121FFF74CF905000DD130
:1052500001208DF804008DF8057000960023656824
:10526000022201A92046A847050002D014A0FFF79A
:1052700023FD2846BDE8FC81EC560008666C61738E
:10528000680000002825732920686173206173730A
:10529000657274206661696C656420617420257391
:1052A0002E0000002E2E5C2E2E5C2E2E5C7366755A
:1052B000645C7372635C736675642E630000000047
:1052C0004572726F723A2057726974655F737461C8
:1052D000747573207265676973746572206661699D
:1052E0006C65642E0000000072B6704762B67047AD
:1052F0002DE9F8434469089E1C481F46150088465E
:105300004FF0000902D0B8F1000F12D006B1C7B1BA
:10531000606818B121890122FBF737FB002D1CD0F2
:10532000002E16D033463A4629464046FEF792FAFA
:1053300013E000900EA311A2812118A0FFF798FCA2
:10534000FEE700901EA30DA2852114A0FFF790FC9C
:10535000FEE729464046FEF7BFF9606818B121898B
:105360000022FBF712FB4846BDE8F883FE56000812
:1053700077726974655F627566000000282573297D
:105380002068617320617373657274206661696C53
:1053900065642061742025732E0000002E2E5C634E
:1053A0006F6D706F6E656E74735C736675645C7040
:1053B0006F72745C736675645F706F72742E6300D5
:1053C000726561645F627566000000007CB506006E
:1053D000356C09D11348009013A315A240F2C731D0
:1053E0001BA0FFF745FCFEE701A93046FFF732FEA0
:1053F00004469DF8040000F0010020430FD0F06B3C
:105400001DB100B180476D1EEEE79DF80400042435
:1054100000F00100204302D014A0FFF74DFC20460D
:105420007CBD0000CB560008666C6173680000000C
:105430002825732920686173206173736572742055
:105440006661696C65642061742025732E0000001C
:105450002E2E5C2E2E5C2E2E5C736675645C737231
:10546000635C736675642E63000000004572726FA2
:10547000723A20466C6173682077616974206275A6
:1054800073792068617320616E206572726F722E6D
:105490000000000000000000000000000102030402
:1054A00006070809A0860100400D0300801A0600C7
:1054B00000350C0040420F0080841E0000093D00B2
:1054C00000127A000024F40000366E010048E80162
:1054D000006CDC02000000000102030473667564C6
:1054E0005F726561645F7366647000726561645FBA
:1054F000736664705F68656164657200726561649B
:105500005F62617369635F6865616465720072659B
:1055100061645F62617369635F7461626C6500728C
:105520006561645F736664705F6461746100736673
:1055300075645F736664705F6765745F73756974C3
:1055400061626C655F657261736572007265736537
:1055500074000000885C000801000000905C0008F6
:1055600004000000345C00081C000000605C0008BF
:105570001F000000785C000820000000245C000888
:1055800037000000805C000862000000685C0008D2
:1055900089000000385C00088C000000705C000886
:1055A000A1000000585C0008AD000000405C00084D
:1055B000BF0000004C5C0008C80000002C5C000824
:1055C000D5000000445C0008EF000000985C000873
:1055D000C2000000EF401303EF401403EF40150337
:1055E000EF401603EF40171FEF40181F1C30161333
:1055F000014015033730140737401717C220160330
:10560000C8401703736675645F717370695F666184
:1056100073745F726561645F656E61626C6500687A
:10562000617264776172655F696E697400736F6639
:1056300074776172655F696E697400736675645F23
:105640007265616400736675645F636869705F6545
:105650007261736500736675645F6572617365007E
:10566000706167653235365F6F725F315F62797482
:10567000655F7772697465006161695F77726974EB
:105680006500726561645F6A656465635F69640093
:105690007365745F77726974655F656E61626C656E
:1056A00064007365745F345F627974655F6164641C
:1056B000726573735F6D6F646500736675645F72A6
:1056C0006561645F73746174757300776169745F99
:1056D00062757379006D616B655F61647265737388
:1056E0005F627974655F6172726179007366756477
:1056F0005F77726974655F7374617475730073703A
:10570000695F77726974655F7265616400000000AB
:105710005265616420616E6420636865636B207705
:105720007269746520646174612068617320616EC0
:10573000206572726F722E205772697465207468CA
:105740006520257320666C61736820646174612034
:105750006661696C65642E0D0A0000004572617314
:10576000652074686520257320666C617368206409
:105770006174612066696E6973682E20537461726A
:10578000742066726F6D203078253038582C207365
:10579000697A6520697320257A752E0D0A0000004C
:1057A00057726974652074686520257320666C6182
:1057B000736820646174612066696E6973682E2065
:1057C00053746172742066726F6D203078253038A2
:1057D000582C2073697A6520697320257A752E0DFF
:1057E0000A000000526561642074686520257320FA
:1057F000666C6173682064617461207375636365AE
:1058000073732E2053746172742066726F6D203032
:1058100078253038582C2073697A652069732025E3
:105820007A752E2054686520646174612069733A2A
:105830000D0A00004572726F723A20436865636B0F
:105840002053464450207369676E617475726520F9
:105850006572726F722E2049742773206D75737490
:105860002062652035303434343635336828275388
:1058700027202746272027442720275027292E0086
:105880005761726E696E673A2052656164205346B3
:10589000445020706172616D657465722068656145
:1058A00064657220696E666F726D6174696F6E20D7
:1058B0006661696C65642E205468652025732069D3
:1058C00073206E6F7420737570706F7274204A4508
:1058D00044454320534644502E00000034204B42A0
:1058E00020457261736520697320737570706F72E3
:1058F000746564207468726F7567686F757420745E
:105900006865206465766963652E20436F6D6D61FF
:105910006E64206973203078253032582E000000E4
:10592000436865636B204A4544454320626173695F
:105930006320666C61736820706172616D65746567
:105940007220686561646572206973204F4B2E2058
:10595000546865207461626C6520696420697320F5
:1059600025642C20726576657273696F6E20697389
:10597000205625642E25642C206C656E6774682083
:1059800069732025642C20706172616D6574657285
:10599000207461626C6520706F696E746572206935
:1059A000732030782530366C582E00004572726FA7
:1059B000723A2054686520666C6173682063617078
:1059C00061636974792069732067726174657220FC
:1059D0007468616E2033322047622F2034204742A2
:1059E00021204E6F7420537570706F727465642E31
:1059F000000000004572726F723A2054686973208B
:105A0000726576657273696F6E285625642E2564FB
:105A100029204A4544454320626173696320666CCE
:105A200061736820706172616D657465722068656C
:105A300061646572206973206E6F74207375707075
:105A40006F727465642E0000426C6F636B2050723D
:105A50006F74656374206269747320696E20646575
:105A6000766963652773207374617475732072653A
:105A70006769737465722061726520736F6C656C01
:105A80007920766F6C6174696C652E00466C617369
:105A900068206465766963652072657175697265F1
:105AA0007320696E737472756374696F6E2035301C
:105AB0006820617320746865207772697465206559
:105AC0006E61626C65207072696F7220746F2070F5
:105AD0006572666F726D696E67206120766F6C61AA
